:1000000024C048C009C687C5B1C844C043C042C067
:100010003AC540C03FC03EC03DC03CC03BC03AC0F6
:1000200039C038C037C036C035C034C033C032C024
:1000300031C030C02FC02EC02DC016C401020480B4
:100040004020100804020108500C11241FBECFEFFD
:10005000D2E0DEBFCDBF11E0A0E0B1E0ECEDFFE10A
:1000600002C005900D92A232B107D9F721E0A2E2B9
:10007000B1E001C01D92AF3DB207E1F710E0C5E26B
:10008000D0E003C02197FE01A1DFC432D107D1F730
:1000900028DCA2CFB5CFE82FF0E0E45CFF4FE4917D
:1000A000A6E3B0E0833010F0A9E3B0E08C91E82340
:1000B00081E090E011F490E080E00895CF93DF9329
:1000C000E82FF0E0E45CFF4FE491833001F18230EF
:1000D00029F48091CA008F738093CA00C8E3D0E0EE
:1000E000A2E6B0E09E2F90952FB761110BC0F89457
:1000F0008881892388838C9189238C932FBFDF91FA
:10010000CF910895F8948881E82BE883F4CF80910B
:10011000CA008F7C8093CA00CBE3D0E0A3E6B0E0B6
:10012000E1CFCF93DF9386FF04C08F739AE0981BD3
:10013000892FE82FF0E0E45CFF4FE4918B3011F061
:100140008330D0F488E390E0A7E3B0E0C2E6D0E0EB
:100150002E2F2095611117C04FB7F8943C91322390
:100160003C93DC013C9132233C93888128232883F3
:100170004FBFDF91CF9108958BE390E0AAE3B0E009
:10018000C3E6D0E0E5CF623069F44FB7F8943C9114
:1001900023232C93DC012C912E2B2C938881E82B8C
:1001A000E883E6CF9FB7F8948881282328838C9131
:1001B000E82BEC939FBFDDCF86FD8F7328B1909124
:1001C0003B019295990F907E2F71922B98B999B11E
:1001D000907C892B89B92E9A2E99FECF86B197B142
:1001E0000895CF93DF93DC011C96ED91FC9126A13D
:1001F00037A12032310510F5A6A1B7A1C6A1D7A11C
:1002000020E230E02A1B3B0B4217530708F49A0107
:10021000DB01EC0FFD1FB9016E0F7F1FE617F7071B
:1002200019F04D914193FACFDC011C96ED91FC91B0
:1002300086A197A1280F391F37A326A3DF91CF915D
:100240000895DC011C96ED91FC9186A197A1809701
:1002500068F486A197A19C012F5F3F4F37A326A387
:10026000E80FF91F608381E090E0089590E080E05E
:100270000895682F81EA91E0E4CF0895DC011C968F
:10028000ED91FC9120A131A182A193A128173907FA
:1002900038F480A191A1E80FF91F808190E00895C2
:1002A0008FEF9FEF0895982F82958F706AE05BDE45
:1002B0009F70890F089581E08093350161E031DFFF
:1002C00060E081E0FBCE80913801883770F080914A
:1002D0003701882351F080913601811106C0EBDF90
:1002E00081E080933601109239010895882339F016
:1002F0008091510190E0909334018093330180917B
:1003000033019091340184359105A0F4809133013B
:10031000909134012091330130913401281B390B25
:1003200030933401209333016DE073E025DE809536
:100330009095089583E590E0EDCF60E080E0BEDE2B
:1003400060E080E0EEDE10922F01089581E080935E
:100350002F0161E080E0E5DE61E080E0AFDE109239
:100360002D0108951092370160E083E0A7DE10921E
:10037000320108951FBC1EBC8EB584608EBD8EB543
:1003800081608EBD709A81E0B1DF9DBD8CBD789A91
:100390000895DC011C96ED91FC9120A131A182A170
:1003A00093A12817390760F480A191A19C012F5FC8
:1003B0003F4F31A320A3E80FF91F808190E00895FB
:1003C0008FEF9FEF0895DC011C96ED91FC9182A1C7
:1003D00093A120A131A1821B930B0895662351F0B4
:1003E00081EA91E0F0DF892B29F081EA91E0D1DF09
:1003F0008093270181E00895DC019C96EC919C9705
:100400009D962C91E21730F4E80FF92FF11D8485A9
:1004100090E008958FEF9FEF0895FC0194A585A5C6
:100420002FEF3FEF981740F4DF01A90FB11D1C9685
:100430002C9130E09F5F94A7C9010895FC0185A528
:1004400094A5891B990B0895CF92DF92EF92FF92AA
:100450000F931F93CF93DF936C01EB017B01E40EAD
:10046000F51E10E000E0CE15DF0561F06991D601C0
:10047000ED91FC910190F081E02DC6010995080FE6
:10048000191FF1CFC801DF91CF911F910F91FF90FC
:10049000EF90DF90CF9008950F931F93CF93082F85
:1004A00010E0F801E45CFE4F6083823358F4C62FFD
:1004B000C80120DBC81731F06C2FC801CF911F9104
:1004C0000F9120CBCF911F910F9108958F929F9202
:1004D000AF92BF92CF92DF92EF92FF92CF93809133
:1004E0002901811145C081E467DE7C0160915401DE
:1004F000062E000C770B880B990B16DC20E030E001
:1005000048EC52E476DB4B015C01B701FF0C880B31
:10051000990B0ADC20E93BE04BE75DE3B9DC9B018A
:10052000AC01C501B401FDDA6B017C01CFDBC62F44
:1005300081E0B2DF6C2F70E090E080E0F5DB9B01A2
:10054000AC01C701B601ECDA20E030E048EC52E43F
:100550009FDCBCDB82E0A0DFC701B601CF91FF903A
:10056000EF90DF90CF90BF90AF909F908F900895C5
:10057000C09129016091280170E090E080E0D2DB19
:1005800020E030E048EC52E434DB6B017C016C2F5E
:1005900070E090E080E0C6DB9B01AC01C701B601D2
:1005A000C0DA6B017C01D8CFCF92DF92EF92FF923D
:1005B000CF93C5B12F9A81E4FFDDBC01990F880B61
:1005C000990BB2DB20E93BE04BE75DE361DC6B01BB
:1005D0007C01C5B9C1E020E030E048EA50E454DCD9
:1005E00018160CF0C0E06C2F87E056DFC701B6018B
:1005F000CF91FF90EF90DF90CF90089581E08093AE
:1006000037011092380110922301109224011092A8
:1006100025011092260110922C0161E083E04EDD4D
:10062000C3CFCF92DF92EF92FF921F93CF93DF93CE
:1006300078982F9885B7877E806185BF85B780625F
:1006400085BF80E28BBF82E080BD789481E080939B
:100650003101CCECD7E0889580913101882309F4F1
:100660006CC060916D016F7709F089C080E0909156
:1006700022019F5F9093220181115FC090914E01F2
:1006800080912201891708F458C0109222018091AC
:100690005001882369F01091500158DE812F90E0BD
:1006A000B0E0A0E00197A109B10908F0C8C045DE9B
:1006B00080915301882379F01091530161E083E028
:1006C000FDDC812F90E0B0E0A0E00197A109B10925
:1006D00008F0B9C047DE68DF6B017C0180914301FF
:1006E000813021F080916501813039F5809144019C
:1006F000813041F080914F018F3F21F08091660160
:100700008130D9F4809152018F3FB9F0609152014C
:1007100070E090E080E006DB20E030E040E251E471
:1007200068DA9B01AC01C701B601AEDB87FD05C0ED
:100730001092310165E08BE0AFDE809131018111D3
:100740008ACFF89485B78F7D85BF2F9A13DE80E31B
:100750008BBF83E080BD789410922E0110923901F6
:10076000109236014BDF81E0C1DD9DBD8CBDDF9174
:10077000CF911F91FF90EF90DF90CF9008958091DF
:10078000230190912401A0912501B09126010196A9
:10079000A11DB11D8093230190932401A0932501F5
:1007A000B093260180916D0120E13EE040E050E0F1
:1007B00087FF04C020E831E541E050E0C09023010C
:1007C000D0902401E0902501F090260170E090E0A7
:1007D00080E0E3DBC616D706E806F90608F446CF44
:1007E000E3DE6B017C0180914301882309F1809154
:1007F00052018F3FC9F06091520170E090E080E0BB
:1008000091DA20E030E040E251E4F3D9A70196010B
:10081000ECD918166CF41092230110922401109256
:1008200025011092260122CF60E070E0CB01EECFCF
:10083000109231016CE08BE02FDE81E018CFFE01D9
:100840003197F1F72FCFFE013197F1F73ECF80912D
:100850003A01882341F081E01EDC892B21F41092BB
:10086000390180DDDECE08951F920F920FB60F92F0
:1008700011242F933F934F935F936F937F938F93A5
:100880009F93AF93BF93CF93EF93FF93C091A30038
:100890008C2F8C7019F18FEF8093960180919701C6
:1008A000909198019F779093980180939701809100
:1008B000A300846C8093A300FF91EF91CF91BF912F
:1008C000AF919F918F917F916F915F914F913F91E8
:1008D0002F910F900FBE0F901F901895C6FD28C046
:1008E000809197019091980197FD22C0C7FF6FC03A
:1008F000C1FFAFC02091920130919301809194018A
:10090000909195012817390708F0A1C080919201B4
:10091000909193019C012F5F3F4F3093930120935F
:10092000920182599E4FFC0180818093A0004FC0AC
:10093000C0FF66C0809197019091980197FF29C0F0
:1009400080919701909198012091A0009695982F01
:1009500088279795879588279370822B9093980185
:1009600080939701E0919901F0919A01309789F174
:1009700010928F0110928E016091960180919701E3
:10098000909198010995811124C087E08093A4007B
:1009900093CF8091A00090E090939801809397016D
:1009A000809196018F5F809396018091970190913D
:1009B0009801897F9927803F9105A1F68091970141
:1009C000909198019068909398018093970183E0AB
:1009D000DDCFC1FF10C01092950110929401E091FB
:1009E0009D01F0919E01309709F0099510929301B5
:1009F00010929201ECCF1092910110929001E7CFEA
:100A0000C1FF15C0E0919F01F091A001309709F05E
:100A100009958FEF809396018091970190919801AD
:100A20009F77909398018093970180E443CFE09162
:100A30009B01F0919C01309761F310928F0110920D
:100A40008E0180919001909191010995E2CF82E011
:100A50009DCF8091900190919101809790F4809129
:100A60009001909191019C012F5F3F4F3093910134
:100A7000209390012091A00082599E4FFC01208379
:100A8000A6CF86E083CF1F920F920FB60F9211244C
:100A90002F933F934F935F936F937F938F939F9386
:100AA000AF93BF93EF93FF93809133019091340103
:100AB000892B59F581E01ADC9DBD8CBDC8DE809183
:100AC0003601882371F0809132018823D9F085E0C6
:100AD000E2DA0197B9F4109236016BE08BE0DCDCCE
:100AE00035DCFF91EF91BF91AF919F918F917F91F5
:100AF0006F915F914F913F912F910F900FBE0F908B
:100B00001F9018952FDC8DDDECCF80E0EFDB9DBDD5
:100B10008CBD9DDEE6CF1F920F920FB60F9211246F
:100B20002F933F934F935F936F937F938F939F93F5
:100B3000AF93BF93CF93DF93EF93FF9381E0ABDA53
:100B4000D82F80E0A8DAC82F809100018D1759F1C5
:100B5000D1115FC061E081E0B1DA62E081E0E1DA09
:100B6000F5DB80913A01811118C081E080933A0150
:100B700080913501811103C063E08BE08DDC8091B1
:100B80003701882309F441C080913901882329F075
:100B900081E0809336011092390181E0A7DB9DBD91
:100BA0008CBD10923501809130018C17B9F0809185
:100BB0002F01811113C080913701882379F0809132
:100BC000360181110BC080913901811107C0C130FC
:100BD00029F460E088E060DCC0933901D093000123
:100BE000C0933001FF91EF91DF91CF91BF91AF9111
:100BF0009F918F917F916F915F914F913F912F9135
:100C00000F900FBE0F901F90189510923101F6DCD7
:100C1000C4CF10923A01C7CF1F920F920FB60F9216
:100C200011242F933F934F935F936F937F938F93F1
:100C30009F93AF93BF93EF93FF9385E02CDA0197D7
:100C4000C1F480912E01811103C081E080932E01B7
:100C5000FF91EF91BF91AF919F918F917F916F9194
:100C60005F914F913F912F910F900FBE0F901F906A
:100C7000189580912E01882359F38091390188239A
:100C800039F310922E011092390181E080933601E0
:100C90008093320152DB81E029DB9DBD8CBDD8CF32
:100CA00071E0D09ABA98000000000000F4D5D09806
:100CB000F2D5A894000000000000C89BE7D5B2F070
:100CC0008894B2990894771F60F7D09A803011F019
:100CD000BA9801C0BA9A000000000000DCD5D09894
:100CE000A89400000000C89BD1D5D5D50000000015
:100CF000D09A872F9927089580E208950894881F35
:100D000001C0880FB9F0D09A00000000000018F46C
:100D10000000BA9802C0BA9A00C0BDD5D098A89475
:100D2000000000000000C89BB1D512F4882712C053
:100D3000B2D5E7CFD09A00000000BA98ACD5992779
:100D40008827D098A8940000C89BA0D57AF3B29BBE
:100D500081E0A1D500000000D09A089581E00895B7
:100D6000CF93DF93EC01862FC9DF811108C08FA5D7
:100D7000811102C083E08FA790E080E002C081E093
:100D800090E0DF91CF910895682F8FEA91E0E8CF4E
:100D9000D09ABA9A80D5D0987ED5C89B77D5BA9884
:100DA0007AD508958F938F918F93C89B6FD5BA9AF8
:100DB00072D5A4DF882311F4EBDFF5CF0F900895EF
:100DC0000895D09A68D5BA9866D5D09864D5C89B4E
:100DD0005DD5BA9A60D592DF089581E00895AF920B
:100DE000BF92DF92EF92FF920F931F93CF93DF9307
:100DF000EB01D62E880F991F8160E3DF9091DE0111
:100E0000911105C0811103C082E08093DE018BEB5C
:100E1000E82E81E0F82E10E000E05E0181E0A81AE3
:100E2000B10881E0A016B10609F080E039DFF701D2
:100E300081937F010F5F1F4F0D1598F31092DB0117
:100E4000C093DC011092DD01A3DF8C2FDF91CF91E5
:100E50001F910F91FF90EF90DF90BF90AF9008959A
:100E6000C89B14D5BA9A17D549DF089581E0089533
:100E7000CF93C091DD01880FCC2369F0A2DF8823D6
:100E800041F080E08093DE0181E08093DD01CF912D
:100E9000089582E0F7CFE4DF811101C0C2E0C09382
:100EA000DE01F2CF1F93CF93DF93162FEA01E0DF2D
:100EB000612F8FEA91E054DF68818FEA91E050DF83
:100EC00067DFEFEAF1E016A617A6DF91CF911F9139
:100ED00008951F93CF93DF93C82FD0E0C45CDE4FFB
:100EE0001BE0AE01612F81E5DDDF1F5F21961F3022
:100EF000C1F7DF91CF911F910895CF93DF931F9298
:100F0000CDB7DEB780E88983AE014F5F5F4F61E008
:100F100081E5C8DF0F90DF91CF910895CF92DF92E6
:100F2000EF92FF920F931F93CF938091270183300D
:100F3000A1F154F5813079F18091270182330CF4CD
:100F4000B7C08091270186330CF0B2C088E490DFEF
:100F500080912701082E000C990BC29715DF809114
:100F60002701833309F0BAC061E070E088E490E0C3
:100F700036DF8FEA91E051DACF911F910F91FF9008
:100F8000EF90DF90CF9075C9853009F454C0873059
:100F900099F60ADBD1CF9ADACFCF82E40DD97C0162
:100FA00083E40AD98C01C0915501B701FF0C880B6D
:100FB000990BBAD620E93BE04BE75DE369D76B01BB
:100FC0007C01B801110F880B990BAED629E030EFE8
:100FD0004CE85AE35DD79B01AC01C701B601A0D52F
:100FE0006B017C016C2FCC0F770B880B990B9CD677
:100FF00020E030E048EC52E4FCD59B01AC01C70195
:10100000B6018FD56B017C0161D6C62F83E044DA2F
:101010006C2F70E090E080E087D69B01AC01C701A7
:10102000B6017ED520E030E048EC52E431D74ED610
:1010300084E032DA81CF83E4BFD8C0915601BC018D
:10104000990F880B990B70D629E030EF4CE85AE3E2
:101050001FD72DEC3CEC4CE45DE3CBD56B017C0160
:101060006C2FCC0F770B880B990B5ED620E030E00D
:1010700048EC52E4BED59B01AC01C701B60151D585
:101080006B017C0123D6C62F85E006DA6C2F70E059
:1010900090E080E049D69B01AC01C701B60140D584
:1010A00020E030E048EC52E4F3D610D686E0C1CF21
:1010B00080912701863364F5E09127010E2E000C04
:1010C000FF0BE45CFE4F608181EA91E0CF911F91BC
:1010D0000F91FF90EF90DF90CF90B3C862E070E087
:1010E00088E490E07CDE8FEA91E097D9C2D88FEA5D
:1010F00091E093D9BED84CDE1092DD011092DE0152
:10110000CF911F910F91FF90EF90DF90CF900895B6
:1011100080912701883484F681E5AADE8091270139
:10112000082E000C990BC6972FDE61E070E081E578
:1011300090E055DEDCCFCF93DF93C82FD62F98DE1B
:101140006D2F8FEA91E00CDE61E070E08C2F90E073
:1011500046DE8FEA91E061D9C82F1ADEEFEAF1E0AE
:1011600016A617A68C2FDF91CF9108951F920F928C
:101170000FB60F9211243F924F925F926F927F921F
:101180008F929F92AF92BF92CF92DF92EF92FF9297
:101190000F931F932F933F934F935F936F937F937F
:1011A0008F939F93AF93BF93EF93FF93CF93DF936F
:1011B000CDB7DEB72597DEBFCDBF80912D018F5F04
:1011C00080932D0180912D01833019F410922D010F
:1011D000B4D880912C018F3F29F080912C018F5F32
:1011E00080932C011092290180912C01843B08F4FA
:1011F00046C080913701882309F441C080913901AC
:101200008823E9F180914301813021F080916501CB
:101210008130A9F580914401882321F080916601F5
:10122000813069F580914F018F3F49F14FD96B01B2
:101230007C0160914F0170E090E080E073D520E088
:1012400030E040E251E4D5D49B01AC01C701B601C6
:10125000CCD487FF14C080913D01809329018091F7
:101260003E018093280161E088E016D964E08BE0BC
:1012700013D921D881E080933601109239018091F1
:101280003801883728F4809138018F5F80933801C6
:1012900060E088E450DF20916A019091680128178E
:1012A0000CF085C18091690166E0813009F487C145
:1012B00080916901823041F466E08BE0EDD8809145
:1012C0003701811101C0F7D764E081E534DF8F7702
:1012D000EAD7182F65E081E52EDFE5D7082F66E015
:1012E00081E529DFE0D7B82E67E081E524DFDBD791
:1012F000682F70E090E080E020E831E541E050E0C8
:101300004CD66B017C016B2D70E090E080E020E119
:101310003EE040E050E041D6C60ED71EE81EF91E62
:10132000602F70E090E080E02CE330E040E050E09F
:1013300034D6C60ED71EE81EF91EC10ED11CE11C04
:10134000F11C80915701AFD7182F80915801ABD76E
:10135000082F80915901A7D7B82E80915A01A3D7A1
:10136000682F70E090E080E020E831E541E050E057
:1013700014D62B013C016B2D70E090E080E020E161
:101380003EE040E050E009D653014201860E971E30
:10139000A81EB91E602F70E090E080E02CE330E0E2
:1013A00040E050E0FAD5860E971EA81EB91E810EA9
:1013B000911CA11CB11C80915C0175D7182F8091E4
:1013C0005D0171D7082F80915E016DD7382E809115
:1013D0005F0169D7682F70E090E080E020E831E598
:1013E00041E050E0DAD52B013C01632D70E090E044
:1013F00080E020E13EE040E050E0CFD5460E571EB1
:10140000681E791E602F70E090E080E02CE330E0F1
:1014100040E050E0C2D5460E571E681E791EA3015B
:101420009201210F311D411D511D2A833B834C83A5
:101430005D8380913701882309F4CCC081E091E07D
:1014400081149104A104B10431F02091450191E08F
:10145000213009F090E02A813B814C815D81232B72
:10146000242B252B09F4FAC03091460121E03130BC
:1014700009F020E0B701A601481959096A097B095A
:101480008A809B80AC80BD80C818D908EA08FB0818
:10149000882309F4F9C091113FC14230510561051B
:1014A000710508F0E5C061E089E0F6D761E087E208
:1014B000F3D7809137018111D3C061E08BE0ECD785
:1014C000FAD680912A018F5F80932A0180912A01A8
:1014D0008F3F79F510922A018091620141E651E037
:1014E000813021F560E088E426DE682F8A310CF037
:1014F000E7C0062E000C770B6A517109072E000C0D
:10150000880B990B11D424E035EC41E05EE3C0D4A4
:10151000D8D390916101892F8F7396FD8054680F05
:1015200067FD60586983AE014F5F5F4F62E081E500
:10153000B9DC80913701811113C080912B01882380
:1015400079F080912B018F5F80932B0180912B018B
:10155000843031F410922B0168E08BE09DD7ABD63C
:101560000F900F900F900F900F90DF91CF91FF9100
:10157000EF91BF91AF919F918F917F916F915F910B
:101580004F913F912F911F910F91FF90EF90DF901E
:10159000CF90BF90AF909F908F907F906F905F9013
:1015A0004F903F900F900FBE0F901F901895891786
:1015B0000CF08ACE80916701813029F467E08BE0DE
:1015C0006BD781D681CE8091670167E0823009F0C8
:1015D0007BCE73CE80914301882309F42FCF15B1C0
:1015E0002F9A74D72B013C0115B960914F0170E01F
:1015F00090E080E097D320E030E040E251E4F9D27F
:1016000020914401A3012130D9F49201EED287FF49
:1016100023C060915201809152018F3F09F40ECF97
:1016200070E090E080E07ED320E030E040E251E4E2
:10163000E0D2A3019201D9D2881F8827881FFFCE4C
:101640009201D3D287FDFACE80914F018F3F09F4EA
:10165000F5CE61E088E020D780E0F1CE21E00ACF2E
:1016600080916C0180FD2DCF81E080932B0129CFEB
:10167000211178C0F7FE54C077FF17C04E3F5F4F6F
:101680006F4F7F4F94F009C091110BC077FF09C0D5
:101690004E3F5F4F6F4F7F4F24F02FDC8BE119DC03
:1016A00010CF21110ECFF7FE0CCF9EEFC9169FEF82
:1016B000D906E906F9060CF404CF1FDC80E2EFCF6F
:1016C0008FED860F8A3078F4062E000C770B60526F
:1016D0007109072E000C880B990B26D32AE731ECF1
:1016E0004CEB5DEB14CF6B32ACF0062E000C770B9D
:1016F0006A527109072E000C880B990B15D32BE148
:1017000031E94DE85EEBC4D328ED31EF4BE65FE302
:1017100007D2FECE60E0FDCE2111D3CEF7FCC5CFBF
:1017200032E0C316D104E104F104CCF461E08AE0B4
:10173000B3D661E088E2B0D680913701882309F4FE
:10174000C0CE809136018111BCCE62E08BE0A4D680
:10175000B2D581E08093360110923901B2CE911159
:10176000B0CE94CF77FFADCE4E3F5F4F6F4F7F4FE0
:101770000CF4A7CE92CF81EA91E025D6892B09F40B
:1017800076C081EA91E005D68093270180912701F8
:101790008233DCF0809127018633BCF488E468DB77
:1017A00080912701082E000C990BC297EDDA8091E9
:1017B0002701833399F481EA91E0EBD5E5DAE8DAA1
:1017C0001092DD011092DE01089580912701863389
:1017D00074F4809127018031BCF408958091270131
:1017E000823369F381EA91E0D4D5CEDAE4CF8091F7
:1017F0002701883474F781E53BDB80912701082EAF
:10180000000C990BC697F1CF8091270182337CF5AC
:1018100081EA91E0D8D5892B51F1809127018B3154
:101820003CF08091270180321CF460E089E034D6DE
:101830008091270180323CF08091270185321CF491
:1018400060E08AE029D681EA91E0A3D5682F8091F3
:10185000270122D680912701853249F480916101C8
:101860008093740141E651E062E081E51BCB08956D
:10187000BA98D098C298D89888279927B29B08958B
:10188000C89B089581E0089581E00895C89BFECF2C
:10189000A8940895089598E09A95F1F70895089509
:1018A000E1EAF1E01382128288EE93E0A0E0B0E07A
:1018B00084839583A683B78325E031E03183208339
:1018C0002EE631E035872487EFEAF1E013821282B9
:1018D00084839583A683B78385E191E09183808398
:1018E0000895789480B7836080BF83B7877F83BF74
:1018F00083B7887F836083BF8091C900887F80938E
:10190000C9008091CA008C7F81608093CA00809159
:10191000C900877E8093C9008091C900887F836059
:101920008093C9008EB5887F8EBD8FB58C7F816016
:101930008FBD8EB5877E8EBD8EB5887F83608EBD50
:1019400080E18093670084EA809368008CEF809345
:10195000660085B1887F866085B92F9A1092DB0179
:101960001092DC011092DE011092DD0181DF60E057
:1019700080E0D7D362E081E0D4D361E083E0D1D3CB
:1019800060E085E0CED360E081E4CBD360E082E428
:10199000C8D360E083E4C5D362E084E0C2D362E0F0
:1019A00086E0BFD3DFD481E080933B0196E2909341
:1019B0003C0197E09093480198E090934C0194E0AB
:1019C00090934E019FEF90934F0124E62093500196
:1019D00026E4209351019093520194E19093540195
:1019E00090935501809362018BE48093680180E5B8
:1019F00080936A01D0E0C0E0CE017CD0FE01E45CBF
:101A0000FE4F8F3F09F06BC01081CE0173D01817C5
:101A100019F0612FCE0176D02196C233D10561F73E
:101A20004AE651E063E088E43DDA48E651E062E0EE
:101A300088E438DA41E651E062E081E533DA80910A
:101A40004C01883008F44DC080914C01883708F073
:101A500048C080914C01E091AD01F091AE01880F3A
:101A60008093A2001092A1008FEF80A78CEB80934F
:101A7000A5008EEE91E094A783A78BEB9BE096A741
:101A800085A78EE897E090AB87A7F89480E38BBF9B
:101A900083E080BD80E282BB6DD4F89481B5806420
:101AA00081BD81B5866081BD7894789480914D0127
:101AB0008130F1F480916B0190E068EE73E05CD2CC
:101AC000092E000CAA0BBB0B2CEC37E00197A109E7
:101AD000B10950F46AE08BE0DFD490D5FFCF80836A
:101AE0009BCF88E090E0B7CFF9013197F1F7EECFC7
:101AF00098D5F4CFE199FECF9FBB8EBBE09A992792
:101B00008DB30895262FE199FECF1CBA9FBB8EBBE3
:101B10002DBB0FB6F894E29AE19A0FBE0196089594
:101B20005058BB27AA270ED075C166D130F06BD1B3
:101B300020F031F49F3F11F41EF45BC10EF4E095E8
:101B4000E7FB51C1E92F77D180F3BA17620773071A
:101B50008407950718F071F49EF58FC10EF4E09597
:101B60000B2EBA2FA02D0B01B90190010C01CA0157
:101B7000A0011124FF27591B99F0593F50F4503E02
:101B800068F11A16F040A22F232F342F4427585FF4
:101B9000F3CF469537952795A795F0405395C9F70C
:101BA0007EF41F16BA0B620B730B840BBAF09150C4
:101BB000A1F0FF0FBB1F661F771F881FC2F70EC063
:101BC000BA0F621F731F841F48F487957795679536
:101BD000B795F7959E3F08F0B3CF9395880F08F01F
:101BE0009927EE0F979587950895D9D008F481E04D
:101BF00008950CD00FC107D140F0FED030F021F491
:101C00005F3F19F0F0C0511139C1F3C014D198F3FE
:101C10009923C9F35523B1F3951B550BBB27AA276D
:101C200062177307840738F09F5F5F4F220F331FDF
:101C3000441FAA1FA9F333D00E2E3AF0E0E830D0AB
:101C400091505040E695001CCAF729D0FE2F27D0AE
:101C5000660F771F881FBB1F261737074807AB077C
:101C6000B0E809F0BB0B802DBF01FF2793585F4FF1
:101C70002AF09E3F510568F0B6C000C15F3FECF30B
:101C8000983EDCF3869577956795B795F7959F5FB6
:101C9000C9F7880F911D9695879597F90895E1E00A
:101CA000660F771F881FBB1F621773078407BA0769
:101CB00020F0621B730B840BBA0BEE1F88F7E095C4
:101CC000089504D06894B111D9C00895BCD088F0AB
:101CD0009F5790F0B92F9927B751A0F0D1F0660F18
:101CE000771F881F991F1AF0BA95C9F712C0B13033
:101CF00081F0C3D0B1E00895C0C0672F782F882746
:101D0000B85F39F0B93FCCF3869577956795B39571
:101D1000D9F73EF490958095709561957F4F8F4FE0
:101D20009F4F0895E89409C097FB3EF490958095E5
:101D3000709561957F4F8F4F9F4F9923A9F0F92F91
:101D400096E9BB279395F695879577956795B7950F
:101D5000F111F8CFFAF4BB0F11F460FF1BC06F5FF5
:101D60007F4F8F4F9F4F16C0882311F096E911C007
:101D7000772321F09EE8872F762F05C0662371F028
:101D800096E8862F70E060E02AF09A95660F771F3C
:101D9000881FDAF7880F9695879597F90895990F18
:101DA0000008550FAA0BE0E8FEEF16161706E80725
:101DB000F907C0F012161306E407F50798F0621B46
:101DC000730B840B950B39F40A2661F0232B242B1B
:101DD000252B21F408950A2609F4A140A6958FEF3A
:101DE000811D811D089597F99F6780E870E060E08C
:101DF00008959FEF80EC089500240A9416161706A4
:101E000018060906089500240A94121613061406EB
:101E100005060895092E0394000C11F4882352F04E
:101E2000BB0F40F4BF2B11F460FF04C06F5F7F4F06
:101E30008F4F9F4F089557FD9058440F551F59F0ED
:101E40005F3F71F04795880F97FB991F61F09F3FA7
:101E500079F087950895121613061406551FF2CFD0
:101E60004695F1DF08C0161617061806991FF1CF20
:101E700086957105610508940895E894BB27662747
:101E80007727CB0197F908958ADF08F48FEF08953B
:101E90000AD0C0CFB1DF28F0B6DF18F0952309F0E3
:101EA000A2CFA7CFEBCFC7DFA8F39923D9F3552350
:101EB000C9F3950F50E0551FAA27EE27FF27BB2730
:101EC00000240894679520F4E20FF31FB41F0A1E44
:101ED000220F331F441FAA1F6695A9F7779530F488
:101EE000F30FB41F0A1E121E08F46395330F441F2C
:101EF000AA1F221F769599F7879520F4B40F0A1E22
:101F0000121E631F440FAA1F221F331F8695A9F7B5
:101F1000862F712D602D11249F5750408AF0E1F0DB
:101F200088234AF0EE0FFF1FBB1F661F771F881F15
:101F300091505040A9F79E3F510570F054CF9ECF6D
:101F40005F3FECF3983EDCF3869577956795B79500
:101F5000F795E7959F5FC1F7FE2B880F911D96952A
:101F6000879597F90895002480FD060E660F11F0FD
:101F70008695D1F7802D08950024552704C0080EBA
:101F8000591F880F991F009729F076956795B8F328
:101F90007105B9F7802D952F0895EE27FF27AA2701
:101FA000BB2708C0A20FB31FE41FF51F220F331F6A
:101FB000441F551F969587957795679598F37040C0
:101FC000A9F7009799F7BD01CF010895EE0FFF1F04
:0C1FD0000590F491E02D0994F894FFCFE7
:101FDC0001000000002101F100E301C9013E013DB7
:101FEC000100000000B00624021E020D02FC013D9F
:021FFC000100E2
:00000001FF
