:1000000024C048C0E7C565C58FC844C043C042C0CE
:1000100018C540C03FC03EC03DC03CC03BC03AC018
:1000200039C038C037C036C035C034C033C032C024
:1000300031C030C02FC02EC02DC0F4C301020480D7
:100040004020100804020108150C11241FBECFEF38
:10005000D2E0DEBFCDBF11E0A0E0B1E0E6E6FFE117
:1000600002C005900D92A232B107D9F721E0A2E2B9
:10007000B1E001C01D92A43EB207E1F710E0C5E275
:10008000D0E003C02197FE0166DFC432D107D1F76B
:10009000EDDB67CFB5CFE82FF0E0E45CFF4FE491F4
:1000A000A6E3B0E0833010F0A9E3B0E08C91E82340
:1000B00081E090E011F490E080E00895CF93DF9329
:1000C000E82FF0E0E45CFF4FE491833001F18230EF
:1000D00029F48091CA008F738093CA00C8E3D0E0EE
:1000E000A2E6B0E09E2F90952FB761110BC0F89457
:1000F0008881892388838C9189238C932FBFDF91FA
:10010000CF910895F8948881E82BE883F4CF80910B
:10011000CA008F7C8093CA00CBE3D0E0A3E6B0E0B6
:10012000E1CFCF93DF9386FF04C08F739AE0981BD3
:10013000892FE82FF0E0E45CFF4FE4918B3011F061
:100140008330D0F488E390E0A7E3B0E0C2E6D0E0EB
:100150002E2F2095611117C04FB7F8943C91322390
:100160003C93DC013C9132233C93888128232883F3
:100170004FBFDF91CF9108958BE390E0AAE3B0E009
:10018000C3E6D0E0E5CF623069F44FB7F8943C9114
:1001900023232C93DC012C912E2B2C938881E82B8C
:1001A000E883E6CF9FB7F8948881282328838C9131
:1001B000E82BEC939FBFDDCF86FD8F7328B1909124
:1001C00040019295990F907E2F71922B98B999B119
:1001D000907C892B89B92E9A2E99FECF86B197B142
:1001E0000895CF93DF93DC011C96ED91FC9126A13D
:1001F00037A12032310510F5A6A1B7A1C6A1D7A11C
:1002000020E230E02A1B3B0B4217530708F49A0107
:10021000DB01EC0FFD1FB9016E0F7F1FE617F7071B
:1002200019F04D914193FACFDC011C96ED91FC91B0
:1002300086A197A1280F391F37A326A3DF91CF915D
:100240000895DC011C96ED91FC9186A197A1809701
:1002500068F486A197A19C012F5F3F4F37A326A387
:10026000E80FF91F608381E090E0089590E080E05E
:100270000895682F86EA91E0E4CF0895DC011C968A
:10028000ED91FC9120A131A182A193A128173907FA
:1002900038F480A191A1E80FF91F808190E00895C2
:1002A0008FEF9FEF0895982F82958F706AE020DE80
:1002B0009F70890F089581E080933A0161E031DFFA
:1002C00060E081E0FBCE80913D01883770F0809145
:1002D0003C01882351F080913B01811106C0EBDF86
:1002E00081E080933B0110923E010895882339F00C
:1002F0008091560190E0909339018093380180916C
:1003000038019091390184359105A0F4809138012C
:10031000909139012091380130913901281B390B16
:1003200030933901209338016DE073E0EADD809568
:100330009095089583E590E0EDCF60E080E0BEDE2B
:1003400060E080E0EEDE10923401089581E0809359
:10035000340161E080E0E5DE61E080E0AFDE109234
:100360003201089510923C0160E083E0A7DE109214
:10037000370108951FBC1EBC8EB584608EBD8EB53E
:1003800081608EBD709A81E0B1DF9DBD8CBD789A91
:100390000895DC011C96ED91FC9120A131A182A170
:1003A00093A12817390760F480A191A19C012F5FC8
:1003B0003F4F31A320A3E80FF91F808190E00895FB
:1003C0008FEF9FEF0895DC011C96ED91FC9182A1C7
:1003D00093A120A131A1821B930B0895662351F0B4
:1003E00086EA91E0F0DF892B29F086EA91E0D1DFFF
:1003F00080932F0181E00895DC019C96EC919C97FD
:100400009D962C91E21730F4E80FF92FF11D8485A9
:1004100090E008958FEF9FEF0895FC0194A585A5C6
:100420002FEF3FEF981740F4DF01A90FB11D1C9685
:100430002C9130E09F5F94A7C9010895FC0185A528
:1004400094A5891B990B0895CF92DF92EF92FF92AA
:100450000F931F93CF93DF936C01EB017B01E40EAD
:10046000F51E10E000E0CE15DF0561F06991D601C0
:10047000ED91FC910190F081E02DC6010995080FE6
:10048000191FF1CFC801DF91CF911F910F91FF90FC
:10049000EF90DF90CF9008950F931F93CF93082F85
:1004A00010E0F801EF5BFE4F6083823358F4C62FF3
:1004B000C801E5DAC81731F06C2FC801CF911F9140
:1004C0000F91E5CACF911F910F9108958F929F923E
:1004D000AF92BF92CF92DF92EF92FF92CF9381E4DF
:1004E0006BDE7C0160915901062E000C770B880BA6
:1004F000990BDFDB20E030E048EC52E43FDB4B01BE
:100500005C01B701FF0C880B990BD3DB20E93BE0C2
:100510004BE75DE382DC9B01AC01C501B401C6DAA7
:100520006B017C0198DBC62F81E0B6DF6C2F70E099
:1005300090E080E0BEDB9B01AC01C701B601B5DAFB
:1005400020E030E048EC52E468DC85DB82E0A4DFA8
:10055000C701B601CF91FF90EF90DF90CF90BF9091
:10056000AF909F908F900895CF92DF92EF92FF927D
:10057000CF93C5B12F9A81E41FDEBC01990F880B80
:10058000990B97DB20E93BE04BE75DE346DC6B0131
:100590007C01C5B9C1E020E030E048EA50E439DC34
:1005A00018160CF0C0E06C2F87E076DFC701B601AB
:1005B000CF91FF90EF90DF90CF90089581E08093EE
:1005C0003C0110923D0110922B0110922C011092CF
:1005D0002D0110922E0161E083E070DDC5CFCF9236
:1005E000DF92EF92FF921F93CF93DF9378982F982B
:1005F00085B7877E806185BF85B7806285BF80E2D1
:100600008BBF82E080BD789481E080933601CCEC92
:10061000D7E0889580913601882309F46CC06091F9
:1006200072016F7709F089C080E090912A019F5F85
:1006300090932A0181115FC09091530180912A010A
:10064000891708F458C010922A0180915501882317
:1006500069F0109155017ADE812F90E0B0E0A0E0C2
:100660000197A109B10908F0C8C067DE809158015F
:10067000882379F01091580161E083E01FDD812F1C
:1006800090E0B0E0A0E00197A109B10908F0B9C07D
:1006900069DE6ADF6B017C0180914801813021F0C5
:1006A00080916A01813039F580914901813041F0B2
:1006B000809154018F3F21F080916B018130D9F4FA
:1006C000809157018F3FB9F06091570170E090E041
:1006D00080E0EDDA20E030E040E251E44FDA9B01C7
:1006E000AC01C701B60195DB87FD05C0109236014C
:1006F00065E08BE0D1DE8091360181118ACFF894DC
:1007000085B78F7D85BF2F9A35DE80E38BBF83E071
:1007100080BD78941092330110923E0110923B01FB
:100720004DDF81E0E3DD9DBD8CBDDF91CF911F9159
:10073000FF90EF90DF90CF90089580912B019091E2
:100740002C01A0912D01B0912E010196A11DB11D8A
:1007500080932B0190932C01A0932D01B0932E0137
:100760008091720120E13EE040E050E087FF04C04C
:1007700020E831E541E050E0C0902B01D0902C0101
:10078000E0902D01F0902E0170E090E080E0CADB57
:10079000C616D706E806F90608F446CFE5DE6B0173
:1007A0007C0180914801882309F1809157018F3F96
:1007B000C9F06091570170E090E080E078DA20E0C5
:1007C00030E040E251E4DAD9A7019601D3D91816F6
:1007D0006CF410922B0110922C0110922D011092AA
:1007E0002E0122CF60E070E0CB01EECF10923601F7
:1007F0006CE08BE051DE81E018CFFE013197F1F71C
:100800002FCFFE013197F1F73ECF80913F01882332
:1008100041F081E040DC892B21F410923E01A2DD01
:10082000DECE08951F920F920FB60F9211242F93D0
:100830003F934F935F936F937F938F939F93AF9368
:10084000BF93CF93EF93FF93C091A3008C2F8C7035
:1008500019F18FEF80939B0180919C0190919D01F4
:100860009F7790939D0180939C018091A300846C5D
:100870008093A300FF91EF91CF91BF91AF919F9192
:100880008F917F916F915F914F913F912F910F9039
:100890000FBE0F901F901895C6FD28C080919C0137
:1008A00090919D0197FD22C0C7FF6FC0C1FFAFC0EF
:1008B00020919701309198018091990190919A012E
:1008C0002817390708F0A1C08091970190919801ED
:1008D0009C012F5F3F4F30939801209397018D58D3
:1008E0009E4FFC0180818093A0004FC0C0FF66C076
:1008F00080919C0190919D0197FF29C080919C015E
:1009000090919D012091A0009695982F882797950A
:10091000879588279370822B90939D0180939C01EB
:10092000E0919E01F0919F01309789F1109294011E
:100930001092930160919B0180919C0190919D0187
:100940000995811124C087E08093A40093CF809102
:10095000A00090E090939D0180939C0180919B0169
:100960008F5F80939B0180919C0190919D01897F75
:100970009927803F9105A1F680919C0190919D015E
:10098000906890939D0180939C0183E0DDCFC1FF2F
:1009900010C010929A0110929901E091A201F09179
:1009A000A301309709F009951092980110929701D0
:1009B000ECCF1092960110929501E7CFC1FF15C0C0
:1009C000E091A401F091A501309709F009958FEF0E
:1009D00080939B0180919C0190919D019F779093C2
:1009E0009D0180939C0180E443CFE091A001F091B0
:1009F000A101309761F310929401109293018091BC
:100A00009501909196010995E2CF82E09DCF80916A
:100A1000950190919601809790F480919501909125
:100A200096019C012F5F3F4F3093960120939501D3
:100A30002091A0008D589E4FFC012083A6CF86E018
:100A400083CF1F920F920FB60F9211242F933F93D3
:100A50004F935F936F937F938F939F93AF93BF93C6
:100A6000EF93FF938091380190913901892B59F5CB
:100A700081E03CDC9DBD8CBDC8DE80913B018823BC
:100A800071F0809137018823D9F085E004DB01976C
:100A9000B9F410923B016BE08BE0FEDC57DCFF9178
:100AA000EF91BF91AF919F918F917F916F915F91E6
:100AB0004F913F912F910F900FBE0F901F9018955F
:100AC00051DC8DDDECCF80E011DC9DBD8CBD9DDE69
:100AD000E6CF1F920F920FB60F9211242F933F93E0
:100AE0004F935F936F937F938F939F93AF93BF9336
:100AF000CF93DF93EF93FF9381E0CDDAD82F80E09F
:100B0000CADAC82F809100018D1759F1D1115FC049
:100B100061E081E0D3DA62E081E003DB17DC809101
:100B20003F01811118C081E080933F0180913A011B
:100B3000811103C063E08BE0AFDC80913C0188232E
:100B400009F441C080913E01882329F081E080931F
:100B50003B0110923E0181E0C9DB9DBD8CBD10922E
:100B60003A01809135018C17B9F0809134018111DF
:100B700013C080913C01882379F080913B01811161
:100B80000BC080913E01811107C0C13029F460E0A3
:100B900088E082DCC0933E01D0930001C093350110
:100BA000FF91EF91DF91CF91BF91AF919F918F9185
:100BB0007F916F915F914F913F912F910F900FBE59
:100BC0000F901F90189510923601F8DCC4CF109248
:100BD0003F01C7CF1F920F920FB60F9211242F9390
:100BE0003F934F935F936F937F938F939F93AF93B5
:100BF000BF93EF93FF9385E04EDA0197C1F48091A4
:100C00003301811103C081E080933301FF91EF91A3
:100C1000BF91AF919F918F917F916F915F914F9114
:100C20003F912F910F900FBE0F901F9018958091BC
:100C30003301882359F380913E01882339F31092C0
:100C4000330110923E0181E080933B018093370194
:100C500074DB81E04BDB9DBD8CBDD8CF71E0D09AB9
:100C6000BA98000000000000DBD5D098D9D5A89430
:100C7000000000000000C89BCED5B2F08894B29965
:100C80000894771F60F7D09A803011F0BA9801C0AD
:100C9000BA9A000000000000C3D5D098A8940000C4
:100CA0000000C89BB8D5BCD500000000D09A872FA3
:100CB0009927089580E208950894881F01C0880F3D
:100CC000B9F0D09A00000000000018F40000BA98B3
:100CD00002C0BA9A00C0A4D5D098A8940000000021
:100CE0000000C89B98D512F4882712C099D5E7CF89
:100CF000D09A00000000BA9893D599278827D098F9
:100D0000A8940000C89B87D57AF3B29B81E088D570
:100D100000000000D09A089581E00895CF93DF93FA
:100D2000EC01862FC9DF811108C08FA5811102C097
:100D300083E08FA790E080E002C081E090E0DF9147
:100D4000CF910895682F84EB91E0E8CFD09ABA9ABA
:100D500067D5D09865D5C89B5ED5BA9861D50895FA
:100D60008F938F918F93C89B56D5BA9A59D5A4DF8C
:100D7000882311F4EBDFF5CF0F9008950895D09AF2
:100D80004FD5BA984DD5D0984BD5C89B44D5BA9A73
:100D900047D592DF089581E00895AF92BF92DF9228
:100DA000EF92FF920F931F93CF93DF93EB01D62E19
:100DB000880F991F8160E3DF9091E301911105C0D5
:100DC000811103C082E08093E30180ECE82E81E092
:100DD000F82E10E000E05E0181E0A81AB10881E081
:100DE000A016B10609F080E039DFF70181937F0199
:100DF0000F5F1F4F0D1598F31092E001C093E101B2
:100E00001092E201A3DF8C2FDF91CF911F910F9100
:100E1000FF90EF90DF90BF90AF900895C89BFBD4F8
:100E2000BA9AFED449DF089581E00895CF93C09126
:100E3000E201880FCC2369F0A2DF882341F080E033
:100E40008093E30181E08093E201CF91089582E0F5
:100E5000F7CFE4DF811101C0C2E0C093E301F2CF1C
:100E60001F93CF93DF93162FEA01E0DF612F84EB0E
:100E700091E054DF688184EB91E050DF67DFE4EBC1
:100E8000F1E016A617A6DF91CF911F9108951F9349
:100E9000CF93DF93C82FD0E0CF5BDE4F1BE0AE01D6
:100EA000612F81E5DDDF1F5F21961F30C1F7DF91E4
:100EB000CF911F910895CF93DF931F92CDB7DEB7E7
:100EC00080E88983AE014F5F5F4F61E081E5C8DF55
:100ED0000F90DF91CF910895CF92DF92EF92FF9222
:100EE0000F931F93CF9380912F018330A1F154F57D
:100EF000813079F180912F0182330CF4B7C0809159
:100F00002F0186330CF0B2C088E490DF80912F016E
:100F1000082E000C990BC29715DF80912F018333A7
:100F200009F0BAC061E070E088E490E036DF84EB5D
:100F300091E073DACF911F910F91FF90EF90DF90C6
:100F4000CF9097C9853009F454C0873099F60CDBEF
:100F5000D1CFBCDACFCF82E42FD97C0183E42CD966
:100F60008C01C0915A01B701FF0C880B990BA1D6D7
:100F700020E93BE04BE75DE350D76B017C01B80112
:100F8000110F880B990B95D629E030EF4CE85AE306
:100F900044D79B01AC01C701B60187D56B017C0129
:100FA0006C2FCC0F770B880B990B83D620E030E0A9
:100FB00048EC52E4E3D59B01AC01C701B60176D5FC
:100FC0006B017C0148D6C62F83E066DA6C2F70E097
:100FD00090E080E06ED69B01AC01C701B60165D5FB
:100FE00020E030E048EC52E418D735D684E054DAFB
:100FF00081CF83E4E1D8C0915B01BC01990F880BDC
:10100000990B57D629E030EF4CE85AE306D72DEC80
:101010003CEC4CE45DE3B2D56B017C016C2FCC0F52
:10102000770B880B990B45D620E030E048EC52E472
:10103000A5D59B01AC01C701B60138D56B017C0178
:101040000AD6C62F85E028DA6C2F70E090E080E0A9
:1010500030D69B01AC01C701B60127D520E030E0B6
:1010600048EC52E4DAD6F7D586E0C1CF80912F0163
:10107000863364F5E0912F010E2E000CFF0BEF5B21
:10108000FE4F608186EA91E0CF911F910F91FF9012
:10109000EF90DF90CF90D5C862E070E088E490E0F8
:1010A0007CDE84EB91E0B9D9E4D884EB91E0B5D94A
:1010B000E0D84CDE1092E2011092E301CF911F9133
:1010C0000F91FF90EF90DF90CF90089580912F01C6
:1010D000883484F681E5AADE80912F01082E000C69
:1010E000990BC6972FDE61E070E081E590E055DE58
:1010F000DCCFCF93DF93C82FD62F98DE6D2F84EBF4
:1011000091E00CDE61E070E08C2F90E046DE84EB35
:1011100091E083D9C82F1ADEE4EBF1E016A617A6FA
:101120008C2FDF91CF9108951F920F920FB60F92DF
:1011300011243F924F925F926F927F928F929F9273
:10114000AF92BF92CF92DF92EF92FF920F931F93D5
:101150002F933F934F935F936F937F938F939F93BF
:10116000AF93BF93EF93FF93CF93DF93CDB7DEB7EA
:101170002597DEBFCDBF809132018F5F8093320112
:1011800080913201833019F410923201D6D88091C7
:101190003C018823C9F180913E018823A9F1809107
:1011A0004801813021F080916A01813069F5809198
:1011B0004901882321F080916B01813029F58091CC
:1011C00054018F3F09F182D96B017C016091540178
:1011D00070E090E080E06BD520E030E040E251E448
:1011E000CDD49B01AC01C701B601C4D487FF0CC0AC
:1011F00061E088E051D964E08BE04ED95CD881E0B1
:1012000080933B0110923E0180913D01883728F484
:1012100080913D018F5F80933D0160E088E469DF4C
:1012200020916F0190916D0128170CF085C180917C
:101230006E0166E0813009F487C180916E018230D1
:1012400041F466E08BE028D980913C01811101C016
:1012500032D864E081E54DDF8F7725D8182F65E01F
:1012600081E547DF20D8082F66E081E542DF1BD803
:10127000B82E67E081E53DDF16D8682F70E090E07A
:1012800080E020E831E541E050E04CD66B017C0184
:101290006B2D70E090E080E020E13EE040E050E027
:1012A00041D6C60ED71EE81EF91E602F70E090E0F2
:1012B00080E02CE330E040E050E034D6C60ED71E8C
:1012C000E81EF91EC10ED11CE11CF11C80915C01CD
:1012D000EAD7182F80915D01E6D7082F80915E0133
:1012E000E2D7B82E80915F01DED7682F70E090E0E2
:1012F00080E020E831E541E050E014D62B013C01CC
:101300006B2D70E090E080E020E13EE040E050E0B6
:1013100009D653014201860E971EA81EB91E602FE2
:1013200070E090E080E02CE330E040E050E0FAD55F
:10133000860E971EA81EB91E810E911CA11CB11C01
:1013400080916101B0D7182F80916201ACD7082F2E
:1013500080916301A8D7382E80916401A4D7682FAB
:1013600070E090E080E020E831E541E050E0DAD53F
:101370002B013C01632D70E090E080E020E13EE035
:1013800040E050E0CFD5460E571E681E791E602FF4
:1013900070E090E080E02CE330E040E050E0C2D527
:1013A000460E571E681E791EA3019201210F311DA2
:1013B000411D511D2A833B834C835D8380913C01F9
:1013C000882309F4CCC081E091E081149104A10448
:1013D000B10431F020914A0191E0213009F090E010
:1013E0002A813B814C815D81232B242B252B09F401
:1013F000FAC030914B0121E0313009F020E0B70113
:10140000A601481959096A097B098A809B80AC802A
:10141000BD80C818D908EA08FB08882309F4F9C078
:1014200091113FC1423051056105710508F0E5C0D9
:1014300061E089E031D861E087E22ED880913C01FB
:101440008111D3C061E08BE027D835D7809130017E
:101450008F5F80933001809130018F3F79F510923A
:1014600030018091670146E651E0813021F560E06E
:1014700088E43FDE682F8A310CF0E7C0062E000CAE
:10148000770B6A517109072E000C880B990B11D448
:1014900024E035EC41E05EE3C0D4D8D390916601FE
:1014A000892F8F7396FD8054680F67FD605869839C
:1014B000AE014F5F5F4F62E081E5D2DC80913C017D
:1014C000811113C080913101882379F0809131011D
:1014D0008F5F8093310180913101843031F410921B
:1014E000310168E08BE0D8D7E6D60F900F900F90CF
:1014F0000F900F90DF91CF91FF91EF91BF91AF913E
:101500009F918F917F916F915F914F913F912F911B
:101510001F910F91FF90EF90DF90CF90BF90AF9011
:101520009F908F907F906F905F904F903F900F9023
:101530000FBE0F901F90189589170CF08ACE8091DE
:101540006C01813029F467E08BE0A6D7BCD681CE50
:1015500080916C0167E0823009F07BCE73CE809180
:101560004801882309F42FCF15B12F9AAFD72B014B
:101570003C0115B96091540170E090E080E097D390
:1015800020E030E040E251E4F9D220914901A3018A
:101590002130D9F49201EED287FF23C06091570128
:1015A000809157018F3F09F40ECF70E090E080E00A
:1015B0007ED320E030E040E251E4E0D2A30192018A
:1015C000D9D2881F8827881FFFCE9201D3D287FDEA
:1015D000FACE809154018F3F09F4F5CE61E088E0A6
:1015E0005BD780E0F1CE21E00ACF8091710180FDD0
:1015F0002DCF81E08093310129CF211178C0F7FEF2
:1016000054C077FF17C04E3F5F4F6F4F7F4F94F02E
:1016100009C091110BC077FF09C04E3F5F4F6F4F5C
:101620007F4F24F048DC8BE132DC10CF21110ECF4C
:10163000F7FE0CCF9EEFC9169FEFD906E906F90613
:101640000CF404CF38DC80E2EFCF8FED860F8A30C8
:1016500078F4062E000C770B60527109072E000CEF
:10166000880B990B26D32AE731EC4CEB5DEB14CFBA
:101670006B32ACF0062E000C770B6A527109072E04
:10168000000C880B990B15D32BE131E94DE85EEB8B
:10169000C4D328ED31EF4BE65FE307D2FECE60E026
:1016A000FDCE2111D3CEF7FCC5CF32E0C316D10455
:1016B000E104F104CCF461E08AE0EED661E088E276
:1016C000EBD680913C01882309F4C0CE80913B0188
:1016D0008111BCCE62E08BE0DFD6EDD581E0809356
:1016E0003B0110923E01B2CE9111B0CE94CF77FF64
:1016F000ADCE4E3F5F4F6F4F7F4F0CF4A7CE92CFD2
:1017000086EA91E060D6892B09F476C086EA91E0FA
:1017100040D680932F0180912F018233DCF080919D
:101720002F018633BCF488E481DB80912F01082EE1
:10173000000C990BC29706DB80912F01833399F43B
:1017400086EA91E026D6FEDA01DB1092E2011092E1
:10175000E301089580912F01863374F480912F0165
:101760008031BCF4089580912F01823369F386EAB9
:1017700091E00FD6E7DAE4CF80912F01883474F737
:1017800081E554DB80912F01082E000C990BC69740
:10179000F1CF80912F0182337CF586EA91E013D658
:1017A000892B51F180912F018B313CF080912F01D9
:1017B00080321CF460E089E06FD680912F01803286
:1017C0003CF080912F0185321CF460E08AE064D601
:1017D00086EA91E0DED5682F80912F015DD6809159
:1017E0002F01853249F4809166018093790146E6A4
:1017F00051E062E081E534CB0895BA98D098C29860
:10180000D89888279927B29B0895C89B089581E0AE
:10181000089581E00895C89BFECFA8940895089587
:1018200098E09A95F1F708950895E6EAF1E01382B9
:10183000128288EE93E0A0E0B0E084839583A683D3
:10184000B78325E031E03183208323E731E035871A
:101850002487E4EBF1E01382128284839583A683CC
:10186000B78385E191E0918380830895789480B770
:10187000836080BF83B7877F83BF83B7887F8360A0
:1018800083BF8091C900887F8093C9008091CA007E
:101890008C7F81608093CA008091C900877E80938D
:1018A000C9008091C900887F83608093C9008EB58C
:1018B000887F8EBD8FB58C7F81608FBD8EB5877E12
:1018C0008EBD8EB5887F83608EBD80E1809367007A
:1018D00084EA809368008CEF8093660085B1887FEE
:1018E000866085B92F9A1092E0011092E101109262
:1018F000E3011092E20181DF60E080E012D462E057
:1019000081E00FD461E083E00CD460E085E009D48D
:1019100060E081E406D460E082E403D460E083E424
:1019200000D462E084E0FDD362E086E0FAD31AD509
:1019300081E08093400196E29093410197E090937B
:101940004D0198E09093510194E0909353019FEFE3
:101950009093540124E62093550126E420935601E8
:101960009093570194E19093590190935A01809379
:1019700067018BE480936D0180E580936F01D0E077
:10198000C0E0CE017CD0FE01EF5BFE4F8F3F09F03F
:101990006BC01081CE0173D0181719F0612FCE01E2
:1019A00076D02196C233D10561F74FE651E063E06E
:1019B00088E456DA4DE651E062E088E451DA46E622
:1019C00051E062E081E54CDA80915101883008F401
:1019D0004DC080915101883708F048C08091510175
:1019E000E091B201F091B301880F8093A2001092B0
:1019F000A1008FEF80A78CEB8093A5008EEE91E085
:101A000094A783A780E89BE096A785A78CE697E03C
:101A100090AB87A7F89480E38BBF83E080BD80E222
:101A200082BBA8D4F89481B5806481BD81B58660FD
:101A300081BD78947894809152018130F1F4809145
:101A4000700190E068EE73E05CD2092E000CAA0BE6
:101A5000BB0B2CEC37E00197A109B10950F46AE007
:101A60008BE01AD5ABD5FFCF80839BCF88E090E089
:101A7000B7CFF9013197F1F7EECFB1D5F4CFE199B6
:101A8000FECF9FBB8EBBE09A99278DB30895262F7A
:101A9000E199FECF1CBA9FBB8EBB2DBB0FB6F8944D
:101AA000E29AE19A0FBE019608955058BB27AA27E3
:101AB0000ED075C166D130F06BD120F031F49F3F6C
:101AC00011F41EF45BC10EF4E095E7FB51C1E92F60
:101AD00077D180F3BA17620773078407950718F068
:101AE00071F49EF58FC10EF4E0950B2EBA2FA02D48
:101AF0000B01B90190010C01CA01A0011124FF27BB
:101B0000591B99F0593F50F4503E68F11A16F040B5
:101B1000A22F232F342F4427585FF3CF46953795B4
:101B20002795A795F0405395C9F77EF41F16BA0B79
:101B3000620B730B840BBAF09150A1F0FF0FBB1F27
:101B4000661F771F881FC2F70EC0BA0F621F731F70
:101B5000841F48F4879577956795B795F7959E3FCD
:101B600008F0B3CF9395880F08F09927EE0F97955B
:101B700087950895D9D008F481E008950CD00FC15D
:101B800007D140F0FED030F021F45F3F19F0F0C0F3
:101B9000511139C1F3C014D198F39923C9F35523D6
:101BA000B1F3951B550BBB27AA2762177307840750
:101BB00038F09F5F5F4F220F331F441FAA1FA9F306
:101BC00033D00E2E3AF0E0E830D091505040E695F8
:101BD000001CCAF729D0FE2F27D0660F771F881F59
:101BE000BB1F261737074807AB07B0E809F0BB0B48
:101BF000802DBF01FF2793585F4F2AF09E3F51056C
:101C000068F0B6C000C15F3FECF3983EDCF3869508
:101C100077956795B795F7959F5FC9F7880F911DE1
:101C20009695879597F90895E1E0660F771F881FCD
:101C3000BB1F621773078407BA0720F0621B730B80
:101C4000840BBA0BEE1F88F7E095089504D06894D2
:101C5000B111D9C00895BCD088F09F5790F0B92F2A
:101C60009927B751A0F0D1F0660F771F881F991FF1
:101C70001AF0BA95C9F712C0B13081F0C3D0B1E003
:101C80000895C0C0672F782F8827B85F39F0B93F13
:101C9000CCF3869577956795B395D9F73EF49095F3
:101CA0008095709561957F4F8F4F9F4F0895E89471
:101CB00009C097FB3EF490958095709561957F4F94
:101CC0008F4F9F4F9923A9F0F92F96E9BB27939542
:101CD000F695879577956795B795F111F8CFFAF452
:101CE000BB0F11F460FF1BC06F5F7F4F8F4F9F4F83
:101CF00016C0882311F096E911C0772321F09EE8E1
:101D0000872F762F05C0662371F096E8862F70E046
:101D100060E02AF09A95660F771F881FDAF7880F20
:101D20009695879597F90895990F0008550FAA0B76
:101D3000E0E8FEEF16161706E807F907C0F01216DE
:101D40001306E407F50798F0621B730B840B950BE1
:101D500039F40A2661F0232B242B252B21F4089536
:101D60000A2609F4A140A6958FEF811D811D0895D3
:101D700097F99F6780E870E060E008959FEF80EC3E
:101D8000089500240A9416161706180609060895E1
:101D900000240A9412161306140605060895092E47
:101DA0000394000C11F4882352F0BB0F40F4BF2BB6
:101DB00011F460FF04C06F5F7F4F8F4F9F4F0895F6
:101DC00057FD9058440F551F59F05F3F71F04795EC
:101DD000880F97FB991F61F09F3F79F087950895D1
:101DE000121613061406551FF2CF4695F1DF08C0F0
:101DF000161617061806991FF1CF8695710561050D
:101E000008940895E894BB2766277727CB0197F9B4
:101E100008958ADF08F48FEF08950AD0C0CFB1DFAC
:101E200028F0B6DF18F0952309F0A2CFA7CFEBCFAB
:101E3000C7DFA8F39923D9F35523C9F3950F50E0D1
:101E4000551FAA27EE27FF27BB2700240894679574
:101E500020F4E20FF31FB41F0A1E220F331F441F8A
:101E6000AA1F6695A9F7779530F4F30FB41F0A1EE1
:101E7000121E08F46395330F441FAA1F221F769584
:101E800099F7879520F4B40F0A1E121E631F440FA2
:101E9000AA1F221F331F8695A9F7862F712D602D4B
:101EA00011249F5750408AF0E1F088234AF0EE0F4A
:101EB000FF1FBB1F661F771F881F91505040A9F757
:101EC0009E3F510570F054CF9ECF5F3FECF3983E9C
:101ED000DCF3869577956795B795F795E7959F5FBE
:101EE000C1F7FE2B880F911D9695879597F9089558
:101EF000002480FD060E660F11F08695D1F7802D27
:101F000008950024552704C0080E591F880F991FF3
:101F1000009729F076956795B8F37105B9F7802D8C
:101F2000952F0895EE27FF27AA27BB2708C0A20FE9
:101F3000B31FE41FF51F220F331F441F551F969533
:101F400087957795679598F37040A9F7009799F76B
:101F5000BD01CF010895EE0FFF1F0590F491E02D14
:061F60000994F894FFCF84
:101F660001000000002101F100E301C9013E013D2D
:101F760001000000008E0624021E020D02FC013D37
:021F8600010058
:00000001FF
