:1000000024C048C0F0C56EC598C844C043C042C0B3
:1000100021C540C03FC03EC03DC03CC03BC03AC00F
:1000200039C038C037C036C035C034C033C032C024
:1000300031C030C02FC02EC02DC0FDC301020480CE
:1000400040201008040201081A0C11241FBECFEF33
:10005000D2E0DEBFCDBF11E0A0E0B1E0E2E7FFE11A
:1000600002C005900D92A232B107D9F721E0A2E2B9
:10007000B1E001C01D92AF3DB207E1F710E0C5E26B
:10008000D0E003C02197FE016CDFC432D107D1F765
:10009000F2DB6DCFB5CFE82FF0E0E45CFF4FE491E9
:1000A000A6E3B0E0833010F0A9E3B0E08C91E82340
:1000B00081E090E011F490E080E00895CF93DF9329
:1000C000E82FF0E0E45CFF4FE491833001F18230EF
:1000D00029F48091CA008F738093CA00C8E3D0E0EE
:1000E000A2E6B0E09E2F90952FB761110BC0F89457
:1000F0008881892388838C9189238C932FBFDF91FA
:10010000CF910895F8948881E82BE883F4CF80910B
:10011000CA008F7C8093CA00CBE3D0E0A3E6B0E0B6
:10012000E1CFCF93DF9386FF04C08F739AE0981BD3
:10013000892FE82FF0E0E45CFF4FE4918B3011F061
:100140008330D0F488E390E0A7E3B0E0C2E6D0E0EB
:100150002E2F2095611117C04FB7F8943C91322390
:100160003C93DC013C9132233C93888128232883F3
:100170004FBFDF91CF9108958BE390E0AAE3B0E009
:10018000C3E6D0E0E5CF623069F44FB7F8943C9114
:1001900023232C93DC012C912E2B2C938881E82B8C
:1001A000E883E6CF9FB7F8948881282328838C9131
:1001B000E82BEC939FBFDDCF86FD8F7328B1909124
:1001C0003B019295990F907E2F71922B98B999B11E
:1001D000907C892B89B92E9A2E99FECF86B197B142
:1001E0000895CF93DF93DC011C96ED91FC9126A13D
:1001F00037A12032310510F5A6A1B7A1C6A1D7A11C
:1002000020E230E02A1B3B0B4217530708F49A0107
:10021000DB01EC0FFD1FB9016E0F7F1FE617F7071B
:1002200019F04D914193FACFDC011C96ED91FC91B0
:1002300086A197A1280F391F37A326A3DF91CF915D
:100240000895DC011C96ED91FC9186A197A1809701
:1002500068F486A197A19C012F5F3F4F37A326A387
:10026000E80FF91F608381E090E0089590E080E05E
:100270000895682F81EA91E0E4CF0895DC011C968F
:10028000ED91FC9120A131A182A193A128173907FA
:1002900038F480A191A1E80FF91F808190E00895C2
:1002A0008FEF9FEF0895982F82958F706AE026DE7A
:1002B0009F70890F089581E08093350161E031DFFF
:1002C00060E081E0FBCE80913801883770F080914A
:1002D0003701882351F080913601811106C0EBDF90
:1002E00081E080933601109239010895882339F016
:1002F0008091510190E0909334018093330180917B
:1003000033019091340184359105A0F4809133013B
:10031000909134012091330130913401281B390B25
:1003200030933401209333016DE073E0F0DD80956C
:100330009095089583E590E0EDCFCF92DF92EF9214
:10034000FF92CF93DF9381E437DFEC01609154019A
:10035000062E000C770B880B990BB1DC20E030E007
:1003600048EC52E411DC6B017C01BE01DD0F880B0F
:10037000990BA5DC20E93BE04BE75DE354DD9B01F5
:10038000AC01C701B60198DBDF91CF91FF90EF90F0
:10039000DF90CF90089560E080E090DE60E080E044
:1003A000C0DE10922F01089581E080932F0161E05B
:1003B00080E0B7DE61E080E081DE10922D010895DB
:1003C0001092370160E083E079CE1FBC1EBC8EB571
:1003D00084608EBD8EB581608EBD709A81E086DFAF
:1003E0009DBD8CBD789A0895DC011C96ED91FC9121
:1003F00020A131A182A193A12817390760F480A11F
:1004000091A19C012F5F3F4F31A320A3E80FF91F5B
:10041000808190E008958FEF9FEF0895DC011C9696
:10042000ED91FC9182A193A120A131A1821B930B9C
:100430000895662351F081EA91E0F0DF892B29F0DD
:1004400081EA91E0D1DF8093270181E00895DC010A
:100450009C96EC919C979D962C91E21730F4E80FB6
:10046000F92FF11D848590E008958FEF9FEF089597
:10047000FC0194A585A52FEF3FEF981740F4DF010D
:10048000A90FB11D1C962C9130E09F5F94A7C90164
:100490000895FC0185A594A5891B990B0895CF9219
:1004A000DF92EF92FF920F931F93CF93DF936C0134
:1004B000EB017B01E40EF51E10E000E0CE15DF0538
:1004C00061F06991D601ED91FC910190F081E02DF0
:1004D000C6010995080F191FF1CFC801DF91CF910F
:1004E0001F910F91FF90EF90DF90CF9008950F93A1
:1004F0001F93CF93082F10E0F801E45CFE4F608358
:10050000823358F4C62FC801C0DAC81731F06C2FF7
:10051000C801CF911F910F91C0CACF911F910F9128
:100520000895CF92DF92EF92FF92CF9380912901AD
:10053000811125C080912801811121C0FEDE6B014F
:100540007C018FDBC62F81E0D2DF6C2F70E090E062
:1005500080E0B5DB9B01AC01C701B601ACDA20E05D
:1005600030E048EC52E45FDC7CDB82E0C0DFC701B6
:10057000B601CF91FF90EF90DF90CF900895C0919A
:1005800029016091280170E090E080E096DB20E096
:1005900030E048EC52E4F8DA6B017C016C2F70E03B
:1005A00090E080E08ADB9B01AC01C701B60184DAF0
:1005B0006B017C01DCCFCF92DF92EF92FF92CF9361
:1005C000C5B12F9ABADE6B017C01C5B923E333E3D1
:1005D0004BE850E4D5DA60E087FD62E087E087DF32
:1005E000C701B601CF91FF90EF90DF90CF900895B3
:1005F00081E080933701109238011092230110920C
:100600002401109225011092260110922C0161E024
:1006100083E054DDD0CFCF92DF92EF92FF921F9311
:10062000CF93DF9378982F9885B7877E806185BFB9
:1006300085B7806285BF80E28BBF82E080BD789401
:1006400081E080933101CCECD7E088958091310135
:10065000882309F45BC060916D016F7709F078C061
:1006600080E0909122019F5F9093220181114EC002
:1006700090914E0180912201891708F447C0109291
:10068000220180915001882369F0109150018CDE85
:10069000812F90E0B0E0A0E00197A109B10908F036
:1006A000B1C079DE80915301882379F01091530114
:1006B00061E083E003DD812F90E0B0E0A0E00197EE
:1006C000A109B10908F0A2C07BDE1091430173DFDC
:1006D000809152018823D1F01230C1F480914301FE
:1006E000811114C080916B0190E068EE73E00FDC23
:1006F000092E000CAA0BBB0B0197A109B10908F048
:1007000089C01092310169E08BE0F1DE8091310106
:1007100081119BCFF89485B78F7D85BF2F9A55DEC9
:1007200080E38BBF83E080BD789410922E011092FD
:100730003901109236015CDF81E0D8DD9DBD8CBDB2
:10074000DF91CF911F91FF90EF90DF90CF900895B0
:100750008091230190912401A0912501B09126015F
:100760000196A11DB11D8093230190932401A093B4
:100770002501B093260180916D0120E13EE040E02B
:1007800050E087FF04C020E831E541E050E0C09030
:100790002301D0902401E0902501F090260170E023
:1007A00090E080E0C5DBC616D706E806F90608F437
:1007B00057CF01DF6B017C01809143018823D9F081
:1007C00060914F0170E090E080E077DA20E030E067
:1007D00040E251E4D9D99B01AC01C701B6011FDB4E
:1007E00018164CF01092230110922401109225014A
:1007F0001092260135CF109231016CE08BE077DE4C
:1008000081E02FCFFE013197F1F746CFFE013197FE
:10081000F1F755CFFE013197F1F76ECF80913A0194
:10082000882341F081E037DC892B21F410923901D3
:10083000C7DDF1CE08951F920F920FB60F921124CB
:100840002F933F934F935F936F937F938F939F93D8
:10085000AF93BF93CF93EF93FF93C091A3008C2FDF
:100860008C7019F18FEF8093960180919701909190
:1008700098019F7790939801809397018091A300AE
:10088000846C8093A300FF91EF91CF91BF91AF91C2
:100890009F918F917F916F915F914F913F912F9198
:1008A0000F900FBE0F901F901895C6FD28C0809125
:1008B00097019091980197FD22C0C7FF6FC0C1FFBB
:1008C000AFC0209192013091930180919401909159
:1008D00095012817390708F0A1C0809192019091E5
:1008E00093019C012F5F3F4F30939301209392011E
:1008F00082599E4FFC0180818093A0004FC0C0FFB1
:1009000066C0809197019091980197FF29C08091CE
:100910009701909198012091A0009695982F882793
:100920009795879588279370822B90939801809351
:100930009701E0919901F0919A01309789F1109215
:100940008F0110928E016091960180919701909194
:1009500098010995811124C087E08093A40093CF6A
:100960008091A00090E090939801809397018091EE
:1009700096018F5F809396018091970190919801E5
:10098000897F9927803F9105A1F6809197019091E9
:1009900098019068909398018093970183E0DDCF50
:1009A000C1FF10C01092950110929401E0919D0139
:1009B000F0919E01309709F00995109293011092E1
:1009C0009201ECCF1092910110929001E7CFC1FFFC
:1009D00015C0E0919F01F091A001309709F00995B1
:1009E0008FEF8093960180919701909198019F7766
:1009F000909398018093970180E443CFE0919B010D
:100A0000F0919C01309761F310928F0110928E014A
:100A100080919001909191010995E2CF82E09DCF64
:100A20008091900190919101809790F48091900134
:100A3000909191019C012F5F3F4F30939101209342
:100A400090012091A00082599E4FFC012083A6CFE7
:100A500086E083CF1F920F920FB60F9211242F932F
:100A60003F934F935F936F937F938F939F93AF9336
:100A7000BF93EF93FF938091330190913401892BC1
:100A800059F581E033DC9DBD8CBDC8DE8091360117
:100A9000882371F0809132018823D9F085E0FBDA58
:100AA0000197B9F4109236016BE08BE020DD7CDC1D
:100AB000FF91EF91BF91AF919F918F917F916F9136
:100AC0005F914F913F912F910F900FBE0F901F900C
:100AD000189576DCA0DDECCF80E008DC9DBD8CBDF8
:100AE0009DDEE6CF1F920F920FB60F9211242F9327
:100AF0003F934F935F936F937F938F939F93AF93A6
:100B0000BF93CF93DF93EF93FF9381E0C4DAD82FA5
:100B100080E0C1DAC82F809100018D1759F1D11101
:100B20005FC061E081E0CADA62E081E0FADA3CDCD1
:100B300080913A01811118C081E080933A0180913F
:100B40003501811103C063E08BE0D1DC8091370176
:100B5000882309F441C080913901882329F081E07C
:100B6000809336011092390181E0C0DB9DBD8CBDC0
:100B700010923501809130018C17B9F080912F01CE
:100B8000811113C080913701882379F0809136015B
:100B900081110BC080913901811107C0C13029F446
:100BA00060E088E0A4DCC0933901D0930001C093D9
:100BB0003001FF91EF91DF91CF91BF91AF919F9164
:100BC0008F917F916F915F914F913F912F910F90F6
:100BD0000FBE0F901F9018951092310109DDC4CF00
:100BE00010923A01C7CF1F920F920FB60F921124A5
:100BF0002F933F934F935F936F937F938F939F9325
:100C0000AF93BF93EF93FF9385E045DA0197C1F46B
:100C100080912E01811103C081E080932E01FF910C
:100C2000EF91BF91AF919F918F917F916F915F9164
:100C30004F913F912F910F900FBE0F901F901895DD
:100C400080912E01882359F380913901882339F34B
:100C500010922E011092390181E080933601809329
:100C6000320199DB81E042DB9DBD8CBDD8CF71E0C4
:100C7000D09ABA98000000000000D7D5D098D5D5FA
:100C8000A894000000000000C89BCAD5B2F0889468
:100C9000B2990894771F60F7D09A803011F0BA9813
:100CA00001C0BA9A000000000000BFD5D098A894F7
:100CB00000000000C89BB4D5B8D500000000D09A51
:100CC000872F9927089580E208950894881F01C00E
:100CD000880FB9F0D09A00000000000018F400005E
:100CE000BA9802C0BA9A00C0A0D5D098A8940000C3
:100CF00000000000C89B94D512F4882712C095D537
:100D0000E7CFD09A00000000BA988FD5992788279E
:100D1000D098A8940000C89B83D57AF3B29B81E059
:100D200084D500000000D09A089581E00895CF9303
:100D3000DF93EC01862FC9DF811108C08FA58111D7
:100D400002C083E08FA790E080E002C081E090E0E5
:100D5000DF91CF910895682F8FEA91E0E8CFD09A84
:100D6000BA9A63D5D09861D5C89B5AD5BA985DD543
:100D700008958F938F918F93C89B52D5BA9A55D56A
:100D8000A4DF882311F4EBDFF5CF0F9008950895C9
:100D9000D09A4BD5BA9849D5D09847D5C89B40D55D
:100DA000BA9A43D592DF089581E00895AF92BF9239
:100DB000DF92EF92FF920F931F93CF93DF93EB019C
:100DC000D62E880F991F8160E3DF9091DE0191118B
:100DD00005C0811103C082E08093DE018BEBE82E19
:100DE00081E0F82E10E000E05E0181E0A81AB10871
:100DF00081E0A016B10609F080E039DFF7018193A8
:100E00007F010F5F1F4F0D1598F31092DB01C09308
:100E1000DC011092DD01A3DF8C2FDF91CF911F91B8
:100E20000F91FF90EF90DF90BF90AF900895C89B17
:100E3000F7D4BA9AFAD449DF089581E00895CF93A0
:100E4000C091DD01880FCC2369F0A2DF882341F037
:100E500080E08093DE0181E08093DD01CF910895F1
:100E600082E0F7CFE4DF811101C0C2E0C093DE0170
:100E7000F2CF1F93CF93DF93162FEA01E0DF612FAC
:100E80008FEA91E054DF68818FEA91E050DF67DFFD
:100E9000EFEAF1E016A617A6DF91CF911F91089512
:100EA0001F93CF93DF93C82FD0E0C45CDE4F1BE0CD
:100EB000AE01612F81E5DDDF1F5F21961F30C1F795
:100EC000DF91CF911F910895CF93DF931F92CDB7FC
:100ED000DEB780E88983AE014F5F5F4F61E081E557
:100EE000C8DF0F90DF91CF910895CF92DF92EF92FC
:100EF000FF920F931F93CF93809127018330A1F12D
:100F000054F5813079F18091270182330CF4B7C018
:100F10008091270186330CF0B2C088E490DF809185
:100F20002701082E000C990BC29715DF809127012D
:100F3000833309F0BAC061E070E088E490E036DF06
:100F40008FEA91E095DACF911F910F91FF90EF908A
:100F5000DF90CF908EC9853009F454C0873099F660
:100F60002ADBD1CFDEDACFCF82E426D97C0183E43D
:100F700023D98C01C0915501B701FF0C880B990B47
:100F80009ED620E93BE04BE75DE34DD76B017C014A
:100F9000B801110F880B990B92D629E030EF4CE87D
:100FA0005AE341D79B01AC01C701B60184D56B015F
:100FB0007C016C2FCC0F770B880B990B80D620E02F
:100FC00030E048EC52E4E0D59B01AC01C701B6012A
:100FD00073D56B017C0145D6C62F83E088DA6C2F70
:100FE00070E090E080E06BD69B01AC01C701B601D8
:100FF00062D520E030E048EC52E415D732D684E0E8
:1010000076DA81CF83E4D8D8C0915601BC01990F1C
:10101000880B990B54D629E030EF4CE85AE303D7FC
:101020002DEC3CEC4CE45DE3AFD56B017C016C2F07
:10103000CC0F770B880B990B42D620E030E048ECC0
:1010400052E4A2D59B01AC01C701B60135D56B01B5
:101050007C0107D6C62F85E04ADA6C2F70E090E05D
:1010600080E02DD69B01AC01C701B60124D520E05C
:1010700030E048EC52E4D7D6F4D586E0C1CF809179
:101080002701863364F5E09127010E2E000CFF0B3B
:10109000E45CFE4F608181EA91E0CF911F910F9156
:1010A000FF90EF90DF90CF90CCC862E070E088E4D2
:1010B00090E07CDE8FEA91E0DBD9DBD88FEA91E02B
:1010C000D7D9D7D84CDE1092DD011092DE01CF9136
:1010D0001F910F91FF90EF90DF90CF900895809136
:1010E0002701883484F681E5AADE80912701082E45
:1010F000000C990BC6972FDE61E070E081E590E06F
:1011000055DEDCCFCF93DF93C82FD62F98DE6D2F1F
:101110008FEA91E00CDE61E070E08C2F90E046DE1B
:101120008FEA91E0A5D9C82F1ADEEFEAF1E016A602
:1011300017A68C2FDF91CF9108951F920F920FB6B3
:101140000F9211243F924F925F926F927F928F92F3
:101150009F92AF92BF92CF92DF92EF92FF920F9346
:101160001F932F933F934F935F936F937F938F932F
:101170009F93AF93BF93EF93FF93CF93DF93CDB73D
:10118000DEB72597DEBFCDBF80912D018F5F8093A5
:101190002D0180912D01833019F410922D01FBD87F
:1011A00080913701811107DA80912C018F3F29F05E
:1011B00080912C018F5F80932C0110922901109255
:1011C000280180912C01843B08F440C080913701B4
:1011D0008823E1F1809139018823C1F18091430195
:1011E000811104C080916501813081F580914401B5
:1011F000882321F080916601813041F580914F0173
:101200008F3F21F18ED96B017C0160914F0170E01D
:1012100090E080E052D520E030E040E251E4B4D4E8
:101220009B01AC01C701B601ABD487FF0FC0809111
:101230003D018093290180913E018093280161E066
:1012400088E055D964E08BE052D935D880913801D7
:10125000883728F4809138018F5F8093380160E0EF
:1012600088E450DF20916A019091680128170CF002
:1012700078C18091690166E0813009F47AC180917A
:101280006901823041F466E08BE031D98091370109
:10129000811101C010D864E081E534DF8F7703D875
:1012A000182F65E081E52EDFFED7082F66E081E587
:1012B00029DFF9D7B82E67E081E524DFF4D7682F5E
:1012C00070E090E080E020E831E541E050E030D689
:1012D0006B017C016B2D70E090E080E020E13EE04E
:1012E00040E050E025D6C60ED71EE81EF91E602F3E
:1012F00070E090E080E02CE330E040E050E018D671
:10130000C60ED71EE81EF91EC10ED11CE11CF11C31
:1013100080915701C8D7182F80915801C4D7082F42
:1013200080915901C0D7B82E80915A01BCD7682F3F
:1013300070E090E080E020E831E541E050E0F8D551
:101340002B013C016B2D70E090E080E020E13EE05D
:1013500040E050E0EDD553014201860E971EA81ED5
:10136000B91E602F70E090E080E02CE330E040E0B8
:1013700050E0DED5860E971EA81EB91E810E911C68
:10138000A11CB11C80915C018ED7182F80915D014A
:101390008AD7082F80915E0186D7382E80915F0111
:1013A00082D7682F70E090E080E020E831E541E0EE
:1013B00050E0BED52B013C01632D70E090E080E051
:1013C00020E13EE040E050E0B3D5460E571E681ED7
:1013D000791E602F70E090E080E02CE330E040E088
:1013E00050E0A6D5460E571E681E791E410E511CB0
:1013F000611C711C80913701882309F4C5C081E00C
:1014000091E081149104A104B10431F020914501CF
:1014100091E0213009F090E021E041145104610491
:10142000710431F03091460121E0313009F020E0C3
:10143000B701A601481959096A097B09C418D508DA
:10144000E608F708882309F4E9C091112FC142305A
:1014500051056105710508F0D5C061E089E047D804
:1014600061E087E244D8809137018111C3C061E017
:101470008BE03DD820D780912A018F5F80932A018D
:1014800080912A018F3F79F510922A0180916201A3
:1014900041E651E0813021F560E088E433DE682FD9
:1014A0008A310CF0D7C0062E000C770B6A517109F7
:1014B000072E000C880B990B02D424E035EC41E098
:1014C0005EE3B1D4C9D390916101892F8F7396FDEA
:1014D0008054680F67FD60586983AE014F5F5F4FAE
:1014E00062E081E5C6DC80913701811113C08091F3
:1014F0002B01882379F080912B018F5F80932B0142
:1015000080912B01843031F410922B0168E08BE044
:10151000EED7D1D60F900F900F900F900F90DF91D4
:10152000CF91FF91EF91BF91AF919F918F917F915B
:101530006F915F914F913F912F911F910F91FF906C
:10154000EF90DF90CF90BF90AF909F908F907F9063
:101550006F905F904F903F900F900FBE0F901F9035
:10156000189589170CF097CE80916701813029F486
:1015700067E08BE0BCD7A7D68ECE8091670167E08D
:10158000823009F088CE80CE80914301882309F40F
:1015900036CF15B12F9AD1D66A837B838C839D83F6
:1015A00015B960914F0170E090E080E086D320E0B3
:1015B00030E040E251E4E8D220914401213049F486
:1015C0002A813B814C815D81DBD2881F8827881F5F
:1015D00017CF2A813B814C815D81D2D287FD0FCF0D
:1015E00080914F018F3F09F40ACF61E088E07FD7F7
:1015F00080E006CF80916C0180FD3DCF81E080933B
:101600002B0139CF211178C0F7FE54C077FF17C0E6
:101610004E3F5F4F6F4F7F4F94F009C091110BC049
:1016200077FF09C04E3F5F4F6F4F7F4F24F04CDC78
:101630008BE136DC20CF21111ECFF7FE1CCF8EEFC1
:10164000C8168FEFD806E806F8060CF414CF3CDC79
:1016500080E2EFCF8FED860F8A3078F4062E000CF3
:10166000770B60527109072E000C880B990B27D35A
:101670002AE731EC4CEB5DEB24CF6B32ACF0062E5D
:10168000000C770B6A527109072E000C880B990B1E
:1016900016D32BE131E94DE85EEBC5D328ED31EFF0
:1016A0004BE65FE308D20ECF60E00DCF2111E3CE11
:1016B000F7FCC5CF82E0C816D104E104F104CCF4F4
:1016C00061E08AE014D761E088E211D780913701A8
:1016D000882309F4D0CE809136018111CCCE62E00E
:1016E0008BE005D7E8D581E080933601109239016F
:1016F000C2CE9111C0CE94CF77FFBDCE4E3F5F4F8B
:101700006F4F7F4F0CF4B7CE92CF81EA91E086D62F
:10171000892B09F476C081EA91E066D6809327018F
:10172000809127018233DCF0809127018633BCF45D
:1017300088E485DB80912701082E000C990BC29765
:101740000ADB80912701833399F481EA91E04CD63A
:1017500002DB05DB1092DD011092DE01089580911D
:101760002701863374F4809127018031BCF40895F9
:1017700080912701823369F381EA91E035D6EBDA73
:10178000E4CF80912701883474F781E558DB80919C
:101790002701082E000C990BC697F1CF80912701E5
:1017A00082337CF581EA91E039D6892B51F1809121
:1017B00027018B313CF08091270180321CF460E0DE
:1017C00089E095D68091270180323CF080912701F5
:1017D00085321CF460E08AE08AD681EA91E004D682
:1017E000682F8091270183D680912701853249F4A3
:1017F000809161018093740141E651E062E081E5EE
:1018000038CB0895BA98D098C298D8988827992745
:10181000B29B0895C89B089581E0089581E00895E2
:10182000C89BFECFA8940895089598E09A95F1F783
:1018300008950895E1EAF1E01382128288EE93E0C0
:10184000A0E0B0E084839583A683B78325E031E0F0
:10185000318320832EE631E035872487EFEAF1E0FB
:101860001382128284839583A683B78385E191E0F6
:10187000918380830895789480B7836080BF83B715
:10188000877F83BF83B7887F836083BF8091C900D0
:10189000887F8093C9008091CA008C7F816080938B
:1018A000CA008091C900877E8093C9008091C900D9
:1018B000887F83608093C9008EB5887F8EBD8FB589
:1018C0008C7F81608FBD8EB5877E8EBD8EB5887F03
:1018D00083608EBD80E18093670084EA8093680016
:1018E0008CEF8093660085B1887F866085B92F9ADA
:1018F0001092DB011092DC011092DE011092DD01EA
:1019000081DF60E080E00DD462E081E00AD461E034
:1019100083E007D460E085E004D460E081E401D492
:1019200060E082E4FED360E083E4FBD362E084E025
:10193000F8D362E086E0F5D343D581E080933B01A4
:1019400097E390933C0197E09093480198E090933F
:101950004C0194E090934E019FE190934F0194E6E7
:101960009093500196E4909351019FEF9093520110
:1019700094E19093540190935501809362018BE41C
:101980008093680180E580936A01D0E0C0E0CE01D9
:101990007CD0FE01E45CFE4F8F3F09F06BC01081EC
:1019A000CE0173D0181719F0612FCE0176D0219691
:1019B000C233D10561F74AE651E063E088E459DAC1
:1019C00048E651E062E088E454DA41E651E062E042
:1019D00081E54FDA80914C01883008F44DC0809148
:1019E0004C01883708F048C080914C01E091AD016E
:1019F000F091AE01880F8093A2001092A1008FEFAA
:101A000080A78CEB8093A50089E192E094A783A73F
:101A100085E89BE096A785A785E797E090AB87A729
:101A2000F89480E38BBF83E080BD80E282BBCDD49D
:101A3000F89481B5806481BD81B5866081BD78945C
:101A4000789480914D018130F1F480916B0190E0A8
:101A500068EE73E05CD2092E000CAA0BBB0B2CECD9
:101A600037E00197A109B10950F46AE08BE03FD556
:101A7000BFD5FFCF80839BCF88E090E0B7CFF9013F
:101A80003197F1F7EECFC7D5F4CFE199FECF9FBBE9
:101A90008EBBE09A99278DB30895262FE199FECF4A
:101AA0001CBA9FBB8EBB2DBB0FB6F894E29AE19A8D
:101AB0000FBE019608955058BB27AA270ED075C1B6
:101AC00066D130F06BD120F031F49F3F11F41EF459
:101AD0005BC10EF4E095E7FB51C1E92F77D180F3AC
:101AE000BA17620773078407950718F071F49EF51B
:101AF0008FC10EF4E0950B2EBA2FA02D0B01B9016A
:101B000090010C01CA01A0011124FF27591B99F073
:101B1000593F50F4503E68F11A16F040A22F232F7F
:101B2000342F4427585FF3CF469537952795A795CF
:101B3000F0405395C9F77EF41F16BA0B620B730B76
:101B4000840BBAF09150A1F0FF0FBB1F661F771FE7
:101B5000881FC2F70EC0BA0F621F731F841F48F49C
:101B6000879577956795B795F7959E3F08F0B3CF22
:101B70009395880F08F09927EE0F9795879508950C
:101B8000D9D008F481E008950CD00FC107D140F0FE
:101B9000FED030F021F45F3F19F0F0C0511139C18F
:101BA000F3C014D198F39923C9F35523B1F3951BCE
:101BB000550BBB27AA2762177307840738F09F5F6E
:101BC0005F4F220F331F441FAA1FA9F333D00E2EDD
:101BD0003AF0E0E830D091505040E695001CCAF74A
:101BE00029D0FE2F27D0660F771F881FBB1F26170F
:101BF00037074807AB07B0E809F0BB0B802DBF01E2
:101C0000FF2793585F4F2AF09E3F510568F0B6C0FA
:101C100000C15F3FECF3983EDCF3869577956795BE
:101C2000B795F7959F5FC9F7880F911D9695879592
:101C300097F90895E1E0660F771F881FBB1F6217B1
:101C400073078407BA0720F0621B730B840BBA0B6F
:101C5000EE1F88F7E095089504D06894B111D9C0BB
:101C60000895BCD088F09F5790F0B92F9927B751AD
:101C7000A0F0D1F0660F771F881F991F1AF0BA9550
:101C8000C9F712C0B13081F0C3D0B1E00895C0C02F
:101C9000672F782F8827B85F39F0B93FCCF3869546
:101CA00077956795B395D9F73EF4909580957095A3
:101CB00061957F4F8F4F9F4F0895E89409C097FB20
:101CC0003EF490958095709561957F4F8F4F9F4F13
:101CD0009923A9F0F92F96E9BB279395F695879557
:101CE00077956795B795F111F8CFFAF4BB0F11F41A
:101CF00060FF1BC06F5F7F4F8F4F9F4F16C08823C1
:101D000011F096E911C0772321F09EE8872F762FF6
:101D100005C0662371F096E8862F70E060E02AF037
:101D20009A95660F771F881FDAF7880F9695879523
:101D300097F90895990F0008550FAA0BE0E8FEEFF8
:101D400016161706E807F907C0F012161306E4077F
:101D5000F50798F0621B730B840B950B39F40A2678
:101D600061F0232B242B252B21F408950A2609F456
:101D7000A140A6958FEF811D811D089597F99F675A
:101D800080E870E060E008959FEF80EC0895002403
:101D90000A941616170618060906089500240A94D0
:101DA00012161306140605060895092E0394000C56
:101DB00011F4882352F0BB0F40F4BF2B11F460FFE5
:101DC00004C06F5F7F4F8F4F9F4F089557FD90580E
:101DD000440F551F59F05F3F71F04795880F97FBEF
:101DE000991F61F09F3F79F08795089512161306A9
:101DF0001406551FF2CF4695F1DF08C016161706D8
:101E00001806991FF1CF869571056105089408950C
:101E1000E894BB2766277727CB0197F908958ADFD7
:101E200008F48FEF08950AD0C0CFB1DF28F0B6DFF5
:101E300018F0952309F0A2CFA7CFEBCFC7DFA8F307
:101E40009923D9F35523C9F3950F50E0551FAA27BD
:101E5000EE27FF27BB2700240894679520F4E20FA4
:101E6000F31FB41F0A1E220F331F441FAA1F6695BB
:101E7000A9F7779530F4F30FB41F0A1E121E08F469
:101E80006395330F441FAA1F221F769599F78795F4
:101E900020F4B40F0A1E121E631F440FAA1F221F34
:101EA000331F8695A9F7862F712D602D11249F571A
:101EB00050408AF0E1F088234AF0EE0FFF1FBB1F6D
:101EC000661F771F881F91505040A9F79E3F51050C
:101ED00070F054CF9ECF5F3FECF3983EDCF38695D5
:101EE00077956795B795F795E7959F5FC1F7FE2BB7
:101EF000880F911D9695879597F90895002480FD88
:101F0000060E660F11F08695D1F7802D08950024F6
:101F1000552704C0080E591F880F991F009729F0F4
:101F200076956795B8F37105B9F7802D952F0895CB
:101F3000EE27FF27AA27BB2708C0A20FB31FE41F65
:101F4000F51F220F331F441F551F969587957795D0
:101F5000679598F37040A9F7009799F7BD01CF01F5
:101F60000895EE0FFF1F0590F491E02D0994F89469
:021F7000FFCFA1
:101F720001000000002101F1000E02F4013E013DCA
:101F8200010000000097064F024902380227023D75
:021F920001004C
:00000001FF
