:1000000024C048C077C6E8C51CC944C043C042C02C
:10001000A2C540C03FC046C43DC03CC03BC03AC082
:1000200039C038C037C036C035C034C033C032C024
:1000300031C030C02FC02EC02DC07EC4010204804C
:100040004020100804020108290C11241FBECFEF24
:10005000D2E0DEBFCDBF11E0A0E0B1E0E2EDFFE114
:1000600002C005900D92A032B107D9F721E0A0E2BD
:10007000B1E001C01D92AA3EB207E1F710E0C5E26F
:10008000D0E003C02197FE019CDFC432D107D1F735
:1000900001DC9DCFB5CFE82FF0E0E45CFF4FE491A9
:1000A000A6E3B0E0833010F0A9E3B0E08C91E82340
:1000B00081E090E011F490E080E00895CF93DF9329
:1000C000E82FF0E0E45CFF4FE491833001F18230EF
:1000D00029F48091CA008F738093CA00C8E3D0E0EE
:1000E000A2E6B0E09E2F90952FB761110BC0F89457
:1000F0008881892388838C9189238C932FBFDF91FA
:10010000CF910895F8948881E82BE883F4CF80910B
:10011000CA008F7C8093CA00CBE3D0E0A3E6B0E0B6
:10012000E1CFCF93DF9386FF04C08F739AE0981BD3
:10013000892FE82FF0E0E45CFF4FE4918B3011F061
:100140008330D0F488E390E0A7E3B0E0C2E6D0E0EB
:100150002E2F2095611117C04FB7F8943C91322390
:100160003C93DC013C9132233C93888128232883F3
:100170004FBFDF91CF9108958BE390E0AAE3B0E009
:10018000C3E6D0E0E5CF623069F44FB7F8943C9114
:1001900023232C93DC012C912E2B2C938881E82B8C
:1001A000E883E6CF9FB7F8948881282328838C9131
:1001B000E82BEC939FBFDDCF86FD8F7328B1909124
:1001C00042019295990F907E2F71922B98B999B117
:1001D000907C892B89B92E9A2E99FECF86B197B142
:1001E00008953FB7F89480913E0190913F01A0910E
:1001F0004001B091410122B708B600FE05C02F3F73
:1002000019F00196A11DB11D3FBFBA2FA92F982F3C
:100210008827BC01CD01620F711D811D911D43E036
:10022000660F771F881F991F4A95D1F70895CF92BF
:10023000DF92EF92FF92CF93DF936B017C01D1DFCE
:10024000EB01C114D104E104F10441F412C081E0D6
:10025000C81AD108E108F108C851DC4FC2DF6C1B95
:100260007D0B683E734068F3C114D104E104F104CE
:1002700071F7DF91CF91FF90EF90DF90CF900895CD
:10028000CF93DF93DC011C96ED91FC9126A137A161
:100290002032310510F5A6A1B7A1C6A1D7A120E251
:1002A00030E02A1B3B0B4217530708F49A01DB018D
:1002B000EC0FFD1FB9016E0F7F1FE617F70719F04E
:1002C0004D914193FACFDC011C96ED91FC9186A1F2
:1002D00097A1280F391F37A326A3DF91CF91089547
:1002E000DC011C96ED91FC9186A197A1809768F4A2
:1002F00086A197A19C012F5F3F4F37A326A3E80F4C
:10030000F91F608381E090E0089590E080E0089517
:10031000682F8CEA91E0E4CF0895DC011C96ED9102
:10032000FC9120A131A182A193A12817390738F4AB
:1003300080A191A1E80FF91F808190E008958FEFCF
:100340009FEF0895982F82958F706AE007DE9F7067
:10035000890F089581E08093330161E0E2DE60E07F
:1003600081E0ACCE80913601883748F0809135012C
:10037000882329F080913401811101C0EBCF0895C9
:10038000882339F08091580190E090933201809356
:100390003101809131019091320184359105A0F4B1
:1003A00080913101909132012091310130913201DF
:1003B000281B390B30933201209331016DE073E03B
:1003C000D6DD80959095089583E590E0EDCFCF92AE
:1003D000DF92EF92FF92CF93DF9381E4EDDEEC01A9
:1003E00060915B01062E000C770B880B990B9BDC50
:1003F00020E030E048EC52E4FBDB6B017C01BE0105
:10040000DD0F880B990B8FDC20E93BE04BE75DE3C8
:100410003ADD9B01AC01C701B60182DBDF91CF91D0
:10042000FF90EF90DF90CF90089560E080E046DE8F
:1004300060E080E076DE10922101089581E08093F3
:10044000210161E080E06DDE61E080E037DE109246
:10045000290108951FBC1EBC8EB584608EBD8EB56B
:1004600081608EBD709A81E08BDF9DBD8CBD789AD6
:100470000895DC011C96ED91FC9120A131A182A18F
:1004800093A12817390760F480A191A19C012F5FE7
:100490003F4F31A320A3E80FF91F808190E008951A
:1004A0008FEF9FEF0895DC011C96ED91FC9182A1E6
:1004B00093A120A131A1821B930B0895662351F0D3
:1004C0008CEA91E0F0DF892B29F08CEA91E0D1DF12
:1004D0008093260181E00895DC019C96EC919C9725
:1004E0009D962C91E21730F4E80FF92FF11D8485C9
:1004F00090E008958FEF9FEF0895FC0194A585A5E6
:100500002FEF3FEF981740F4DF01A90FB11D1C96A4
:100510002C9130E09F5F94A7C9010895FC0185A547
:1005200094A5891B990B0895CF92DF92EF92FF92C9
:100530000F931F93CF93DF936C01EB017B01E40ECC
:10054000F51E10E000E0CE15DF0561F06991D601DF
:10055000ED91FC910190F081E02DC6010995080F05
:10056000191FF1CFC801DF91CF911F910F91FF901B
:10057000EF90DF90CF9008950F931F93CF93082FA4
:1005800010E0F801ED5BFE4F6083823358F4C62F14
:10059000C801AFDAC81731F06C2FC801CF911F9195
:1005A0000F91AFCACF911F910F910895CF92DF9213
:1005B000EF92FF92CF9315DEC0902201D0902301DD
:1005C000E0902401F09025016C157D058E059F05B6
:1005D000D8F1C0902201D0902301E0902401F09046
:1005E00025019B01AC012C193D094E095F096901E8
:1005F0007A0130E4C31632E4D3063FE0E306F104A7
:1006000018F5C09144016091450170E090E080E0F0
:1006100088DB20E030E048EC52E4EADA6B017C0150
:100620006C2F70E090E080E07CDB9B01AC01C701A7
:10063000B60176DA6B017C01C701B601CF91FF905C
:10064000EF90DF90CF900895609322017093230183
:100650008093240190932501BADE6B017C0135DB88
:10066000C62F81E089DF6C2F70E090E080E05BDBDB
:100670009B01AC01C701B60152DA20E030E048EC42
:1006800052E401DC22DB82E077DFD6CFCF92DF922B
:10069000EF92FF9280912B018823D1F18091350157
:1006A0008823B1F180914A01811104C080916C01CD
:1006B000813071F580914B01882321F080916D018B
:1006C000813031F5809156018F3F11F16FDF6B0161
:1006D0007C016091560170E090E080E022DB20E038
:1006E00030E040E251E484DA9B01AC01C701B6017D
:1006F0007BDA87FF0FC061E088E03EDF64E08BE0DB
:100700003BDF28DE81E0FF90EF90DF90CF900895EF
:1007100080E0F9CF82E0F7CFCF92DF92EF92FF92A5
:10072000CF93C5B12F9A53DE6B017C01C5B920E090
:1007300030E048E850E458DA60E087FD62E087E0A6
:100740001BDFC701B601CF91FF90EF90DF90CF90F4
:10075000089581E080932B011092360161E083E0DF
:10076000ADDCDACF10922B0160E083E0A7DC809152
:100770002701882359F01092270164EF71E080E08F
:1007800090E055DD68E08BE0F7DEE4CD08958091E0
:100790003801882349F081E07EDC892B29F481E04F
:1007A00080933701DFDF41CE0895CF9378982F985B
:1007B00085B7877E806185BF85B7806285BF80E20F
:1007C0008BBF82E080BD789481E080932C01889576
:1007D00080912C01882309F446C0809120018F5F0D
:1007E0008093200190915501809120018917D8F1C3
:1007F0001092200180915701882349F0C091570140
:100800001DDE6C2F70E090E080E011DD0EDE809147
:100810005A01882359F0C0915A0161E083E04EDC0F
:100820006C2F70E090E080E002DD9CDFC0914A0117
:1008300073DF809159018823B1F0C230A1F4809117
:100840004A01811110C08091720190E068EE73E05E
:100850008EDBBC01990F880B990BE9DC10922C01FF
:1008600069E08BE089DE80912C018111B0CFF89492
:1008700085B78F7D85BF2F9AEDDD80E38BBF83E049
:1008800080BD789410922A011092350110923401A3
:1008900081E0809338015DDF81E072DD9DBD8CBD1C
:1008A000CF9108951F920F920FB60F9211242F939C
:1008B0003F938F939F93AF93BF9380913A01909111
:1008C0003B01A0913C01B0913D013091390126E0FE
:1008D000230F2D3768F129E8230F0396A11DB11DC1
:1008E0002093390180933A0190933B01A0933C01FE
:1008F000B0933D0180913E0190913F01A091400154
:10090000B09141010196A11DB11D80933E019093CC
:100910003F01A0934001B0934101BF91AF919F91DE
:100920008F913F912F910F900FBE0F901F901895B0
:100930000296A11DB11DD4CF1F920F920FB60F9238
:1009400011242F933F934F935F936F937F938F93D4
:100950009F93AF93BF93CF93EF93FF93C091A30067
:100960008C2F8C7019F18FEF8093A1018091A201DF
:100970009091A3019F779093A3018093A20180910E
:10098000A300846C8093A300FF91EF91CF91BF915E
:10099000AF919F918F917F916F915F914F913F9117
:1009A0002F910F900FBE0F901F901895C6FD28C075
:1009B0008091A2019091A30197FD22C0C7FF6FC053
:1009C000C1FFAFC020919D0130919E0180919F0198
:1009D0009091A0012817390708F0A1C080919D01CE
:1009E00090919E019C012F5F3F4F30939E01209379
:1009F0009D0187589E4FFC0180818093A0004FC0CD
:100A0000C0FF66C08091A2019091A30197FF29C009
:100A10008091A2019091A3012091A0009695982F1A
:100A200088279795879588279370822B9093A301A9
:100A30008093A201E091A401F091A501309789F182
:100A400010929A01109299016091A1018091A201E6
:100A50009091A3010995811124C087E08093A4009F
:100A600093CF8091A00090E09093A3018093A20186
:100A70008091A1018F5F8093A1018091A20190914B
:100A8000A301897F9927803F9105A1F68091A2015A
:100A90009091A30190689093A3018093A20183E0B9
:100AA000DDCFC1FF10C01092A00110929F01E09114
:100AB000A801F091A901309709F0099510929E01C3
:100AC00010929D01ECCF10929C0110929B01E7CFF8
:100AD000C1FF15C0E091AA01F091AB01309709F078
:100AE00009958FEF8093A1018091A2019091A301BC
:100AF0009F779093A3018093A20180E443CFE0917C
:100B0000A601F091A701309761F310929A0110921B
:100B1000990180919B0190919C010995E2CF82E01F
:100B20009DCF80919B0190919C01809790F4809142
:100B30009B0190919C019C012F5F3F4F30939C0142
:100B400020939B012091A00087589E4FFC01208399
:100B5000A6CF86E083CF1F920F920FB60F9211247B
:100B60002F933F934F935F936F937F938F939F93B5
:100B7000AF93BF93EF93FF93809131019091320136
:100B8000892B21F581E0FCDB9DBD8CBD00DE8091D1
:100B90003401882339F085E07EDA0197A1F41092C0
:100BA00034014CDCFF91EF91BF91AF919F918F91F8
:100BB0007F916F915F914F913F912F910F900FBE59
:100BC0000F901F901895CEDDF0DDECCF80E0D8DBE4
:100BD0009DBD8CBDDCDDE6CF1F920F920FB60F924C
:100BE0001124CF92DF92EF92FF922F933F934F9376
:100BF0005F936F937F938F939F93AF93BF93EF9385
:100C0000FF93C0902D01D0902E01E0902F01F09025
:100C10003001E7DA60932D0170932E0180932F014C
:100C20009093300180912D0190912E01A0912F0180
:100C3000B09130018C199D09AE09BF090A97A10531
:100C4000B10538F0809137018823C1F01092370147
:100C5000ACDDFF91EF91BF91AF919F918F917F910B
:100C60006F915F914F913F912F91FF90EF90DF90A7
:100C7000CF900F900FBE0F901F90189581E00BDA68
:100C8000892BA9F561E081E019DA62E081E049DAB7
:100C9000D5DB10922C018091380181110BC081E0CD
:100CA0008093380180913301811103C063E08BE0B0
:100CB00063DC4FDD81E064DB9DBD8CBD10923301B0
:100CC00080912B01882329F2809134018111C1CFB9
:100CD000E2D9019709F0BDCF60E088E04DDC80915A
:100CE00035018111B6CF81E080933501B2CF1092EA
:100CF0003801E6CF1F920F920FB60F9211242F9357
:100D00003F934F935F936F937F938F939F93AF9393
:100D1000BF93EF93FF9385E0BED90197C1F4809113
:100D20002A01811103C081E080932A01FF91EF9194
:100D3000BF91AF919F918F917F916F915F914F91F3
:100D40003F912F910F900FBE0F901F90189580919B
:100D50002A01882359F310922A011092350181E06B
:100D60008093340162DB81E00BDB9DBD8CBDDECF67
:100D700071E0D09ABA9800000000000065D5D098C4
:100D800063D5A894000000000000C89B58D5B2F0BD
:100D90008894B2990894771F60F7D09A803011F048
:100DA000BA9801C0BA9A0000000000004DD5D09852
:100DB000A89400000000C89B42D546D50000000062
:100DC000D09A872F9927089580E208950894881F64
:100DD00001C0880FB9F0D09A00000000000018F49C
:100DE0000000BA9802C0BA9A00C02ED5D098A89434
:100DF000000000000000C89B22D512F4882712C012
:100E000023D5E7CFD09A00000000BA981DD59927C6
:100E10008827D098A8940000C89B11D57AF3B29B7C
:100E200081E012D500000000D09A089581E0089575
:100E3000CF93DF93EC01862FC9DF811108C08FA506
:100E4000811102C083E08FA790E080E002C081E0C2
:100E500090E0DF91CF910895682F8AEB91E0E8CF81
:100E6000D09ABA9AF1D4D098EFD4C89BE8D4BA9863
:100E7000EBD408958F938F918F93C89BE0D4BA9A47
:100E8000E3D4A4DF882311F4EBDFF5CF0F900895AE
:100E90000895D09AD9D4BA98D7D4D098D5D4C89B2D
:100EA000CED4BA9AD1D492DF089581E00895AF925A
:100EB000BF92DF92EF92FF920F931F93CF93DF9336
:100EC000EB01D62E880F991F8160E3DF9091E90135
:100ED000911105C0811103C082E08093E90186EC85
:100EE000E82E81E0F82E10E000E05E0181E0A81A13
:100EF000B10881E0A016B10609F080E039DFF70102
:100F000081937F010F5F1F4F0D1598F31092E6013B
:100F1000C093E7011092E801A3DF8C2FDF91CF91FE
:100F20001F910F91FF90EF90DF90BF90AF900895C9
:100F3000C89B85D4BA9A88D449DF089581E0089582
:100F4000CF93C091E801880FCC2369F0A2DF8823FA
:100F500041F080E08093E90181E08093E801CF9146
:100F6000089582E0F7CFE4DF811101C0C2E0C093B1
:100F7000E901F2CF1F93CF93DF93162FEA01E0DF51
:100F8000612F8AEB91E054DF68818AEB91E050DFBA
:100F900067DFEAEBF1E016A617A6DF91CF911F916C
:100FA00008951F93CF93DF93C82FD0E0CD5BDE4F22
:100FB0001BE0AE01612F81E5DDDF1F5F21961F3051
:100FC000C1F7DF91CF911F910895CF93DF931F92C7
:100FD000CDB7DEB780E88983AE014F5F5F4F61E038
:100FE00081E5C8DF0F90DF91CF910895CF92DF9216
:100FF000EF92FF920F931F93CF938091260183303E
:10100000B9F154F5813079F18091260182330CF4E5
:10101000BAC08091260186330CF0B5C088E490DF19
:1010200080912601082E000C990BC29715DF809144
:101030002601833309F0BDC061E070E088E490E0F0
:1010400036DF8AEB91E059DACF911F910F91FF9033
:10105000EF90DF90CF905CC9853009F457C087309E
:1010600099F65ADBD1CF12DB8111CECF9FDACCCFEC
:1010700082E4A2D87C0183E49FD88C01C0915C01FA
:10108000B701FF0C880B990B4ED620E93BE04BE7EC
:101090005DE3F9D66B017C01B801110F880B990B48
:1010A00042D629E030EF4CE85AE3EDD69B01AC0183
:1010B000C701B60134D56B017C016C2FCC0F770BC7
:1010C000880B990B30D620E030E048EC52E490D504
:1010D0009B01AC01C701B60123D56B017C01F5D59D
:1010E000C62F83E049DA6C2F70E090E080E01BD6D9
:1010F0009B01AC01C701B60112D520E030E048ECFD
:1011000052E4C1D6E2D584E037DA7ECF83E454D806
:10111000C0915D01BC01990F880B990B04D629E0A1
:1011200030EF4CE85AE3AFD62DEC3CEC4CE45DE3F9
:101130005FD56B017C016C2FCC0F770B880B990B63
:10114000F2D520E030E048EC52E452D59B01AC01EE
:10115000C701B601E5D46B017C01B7D5C62F85E088
:101160000BDA6C2F70E090E080E0DDD59B01AC01E4
:10117000C701B601D4D420E030E048EC52E483D675
:10118000A4D586E0C1CF80912601863364F5E09135
:1011900026010E2E000CFF0BED5BFE4F60818CEAEA
:1011A00091E0CF911F910F91FF90EF90DF90CF9042
:1011B00097C862E070E088E490E079DE8AEB91E025
:1011C0009CD9A6D88AEB91E098D9A2D849DE109292
:1011D000E8011092E901CF911F910F91FF90EF90DC
:1011E000DF90CF90089580912601883484F681E5C0
:1011F000A7DE80912601082E000C990BC6972CDEE5
:1012000061E070E081E590E052DEDCCFCF93DF93C8
:10121000C82FD62F95DE6D2F8AEB91E009DE61E0B5
:1012200070E08C2F90E043DE8AEB91E066D9C82F06
:1012300017DEEAEBF1E016A617A68C2FDF91CF910F
:1012400008951F920F920FB60F9211243F924F9262
:101250005F926F927F928F929F92AF92BF92CF9246
:10126000DF92EF92FF920F931F932F933F934F9331
:101270005F936F937F938F939F93AF93BF93EF93FE
:10128000FF93CF93DF93CDB7DEB72597DEBFCDBFFA
:10129000809129018F5F80932901809129018530F8
:1012A00019F410922901C1D880913601883728F4A9
:1012B000809136018F5F8093360160E088E4A6DF7D
:1012C0002091710190916F0128170CF066C18091F7
:1012D000700166E0813009F468C18091700182304C
:1012E00041F466E08BE048D980912B01811101C067
:1012F00031D864E081E58ADF8F7724D8182F65E044
:1013000081E584DF1FD8082F66E081E57FDF1AD8EA
:10131000B82E67E081E57ADF15D8682F70E090E09D
:1013200080E020E831E541E050E032D66B017C01FD
:101330008B2D90E060E17EE01AD6092E000CAA0BFE
:10134000BB0BC80ED91EEA1EFB1E802F90E06CE37B
:1013500070E00DD6092E000CAA0BBB0B8C0D9D1D49
:10136000AE1DBF1D6C017D01C10ED11CE11CF11C25
:1013700080915E01E7D7182F80915F01E3D7082F96
:1013800080916001DFD7782E80916101DBD7682FD3
:1013900070E090E080E020E831E541E050E0F8D5F1
:1013A0004B015C01872D90E060E17EE0E0D5092EE5
:1013B000000CAA0BBB0B880E991EAA1EBB1E802F09
:1013C00090E06CE370E0D3D5092E000CAA0BBB0BA8
:1013D000880D991DAA1DBB1D4C015D01810E911C3C
:1013E000A11CB11C80916301ADD7182F80916401BD
:1013F000A9D7082F80916501A5D7382E8091660165
:10140000A1D7682F70E090E080E020E831E541E06E
:1014100050E0BED52B013C01832D90E060E17EE0E1
:10142000A6D5092E000CAA0BBB0B480E591E6A1E2E
:101430007B1E802F90E06CE370E099D5092E000CA4
:10144000AA0BBB0B840D951DA61DB71D2C013D01DC
:10145000410E511C611C711C80912B01882309F4E1
:10146000AFC081E091E081149104A104B10431F096
:1014700020914C0191E0213009F090E021E04114ED
:1014800051046104710431F030914D0121E031309B
:1014900009F020E0B701A601481959096A097B093A
:1014A000C418D508E608F708882309F4CBC09111C1
:1014B00011C1423051056105710508F0B7C061E006
:1014C00089E05AD861E087E257D880912B0161E02A
:1014D000882309F419C181E08093270180912801B4
:1014E0008F5F80932801809128018F3F79F51092BA
:1014F00028018091690148E651E0813021F560E0E2
:1015000088E484DE682F8A310CF0B8C0062E000C07
:10151000770B6A517109072E000C880B990B03D4C5
:1015200024E035EC41E05EE3AED4CAD3909168018B
:10153000892F8F7396FD8054680F67FD605869830B
:10154000AE014F5F5F4F62E081E514DD0F900F90B9
:101550000F900F900F90DF91CF91FF91EF91BF917E
:10156000AF919F918F917F916F915F914F913F913B
:101570002F911F910F91FF90EF90DF90CF90BF9030
:10158000AF909F908F907F906F905F904F903F9023
:101590000F900FBE0F901F90189589170CF0A9CED1
:1015A00080916E01813029F467E08BE0E5D7DAD6CF
:1015B000A0CE80916E0167E0823009F09ACE92CE83
:1015C00080914A01882309F44CCF15B12F9AFFD698
:1015D0006A837B838C839D8315B96091560170E08B
:1015E00090E080E09ED320E030E040E251E400D380
:1015F00020914B01213049F42A813B814C815D814E
:10160000F3D2881F8827881F2DCF2A813B814C81E8
:101610005D81EAD287FD25CF809156018F3F09F485
:1016200020CF61E088E0A8D780E01CCF211173C0F3
:10163000F7FE54C077FF17C04E3F5F4F6F4F7F4F8D
:1016400094F009C091110BC077FF09C04E3F5F4F66
:101650006F4F7F4F24F0B9DC8BE1A3DC3FCF21112A
:101660003DCFF7FE3BCF8EEFC8168FEFD806E806CA
:10167000F8060CF433CFA9DC80E2EFCF8FED860FB4
:101680008A3078F4062E000C770B60527109072E11
:10169000000C880B990B47D32AE731EC4CEB5DEB40
:1016A00043CF6B32ACF0062E000C770B6A527109F7
:1016B000072E000C880B990B36D32BE131E94DE84E
:1016C0005EEBE1D328ED31EF4BE65FE328D22DCF7F
:1016D00060E02CCF211102CFF7FCC5CF82E0C81605
:1016E000D104E104F104A4F461E08AE045D761E0AB
:1016F00088E242D780913501882309F4EFCE8091AA
:1017000034018111EBCE62E08BE036D723D6E6CEF2
:101710009111E4CE99CF77FFE1CE4E3F5F4F6F4FEF
:101720007F4F0CF4DBCE97CF8CEA91E0BCD6892BAF
:1017300009F476C08CEA91E09CD6809326018091D2
:1017400026018233DCF0809126018633BCF488E4E4
:10175000F7DB80912601082E000C990BC2977CDBE9
:1017600080912601833399F48CEA91E082D674DB70
:1017700077DB1092E8011092E9010895809126012B
:10178000863374F4809126018031BCF408958091F1
:101790002601823369F38CEA91E06BD65DDBE4CFFE
:1017A00080912601883474F781E5CADB8091260197
:1017B000082E000C990BC697F1CF80912601823339
:1017C0007CF58CEA91E06FD6892B51F1809126014E
:1017D0008B313CF08091260180321CF460E089E07E
:1017E000CBD68091260180323CF080912601853253
:1017F0001CF460E08AE0C0D68CEA91E03AD6682F0B
:1018000080912601B9D680912601853249F48091D4
:10181000680180937B0148E651E062E081E5AACB54
:101820000895BA98D098C298D89888279927B29BDB
:101830000895C89B089581E0089581E00895C89BAC
:10184000FECFA8940895089598E09A95F1F7089529
:101850000895ECEAF1E01382128288EE93E0A0E0B2
:10186000B0E084839583A683B78324E031E031839D
:10187000208329E731E035872487EAEBF1E0138202
:10188000128284839583A683B78384E191E0918358
:1018900080830895789480B7836080BF83B7877F03
:1018A00083BF83B7887F836083BF89B7816089BF27
:1018B0008091C900887F8093C9008091CA008C7F85
:1018C00081608093CA008091C900877E8093C9009F
:1018D0008091C900887F83608093C9008EB5887F1E
:1018E0008EBD8FB58C7F81608FBD8EB5877E8EBD9E
:1018F0008EB5887F83608EBD80E18093670084EA27
:10190000809368008CEF8093660085B1887F866045
:1019100085B92F9A1092E6011092E7011092E90121
:101920001092E8017EDF60E080E0FBD362E081E0BE
:10193000F8D361E083E0F5D360E085E0F2D360E0C6
:1019400081E4EFD360E082E4ECD360E083E4E9D3A8
:1019500062E084E0E6D362E086E0E3D303D781E08F
:101960008093420197E39093430192E090934F015B
:1019700098E09093530194E0909355019FE19093E8
:10198000560194E69093570192E3909358019FEF8C
:101990009093590194E190935B0190935C01809343
:1019A00069018BE480936F0180E580937101D0E041
:1019B000C0E0CE019ED0FE01ED5BFE4F8F3F09F0EF
:1019C00091C01081CE0195D0181719F0612FCE016A
:1019D00098D02196C233D10561F741E751E063E029
:1019E00088E4C8DA4FE651E062E088E4C3DA48E60A
:1019F00051E062E081E5BEDA80915301883008F45D
:101A000073C080915301883708F06EC080915301F4
:101A1000E091B801F091B901880F8093A200109273
:101A2000A1008FEF80A78CEB8093A5008EE592E05C
:101A300094A783A784E99BE096A785A786EF97E004
:101A400090AB87A7F89480E38BBF83E080BD80E2F2
:101A500082BB00D5F89481B5806481BD81B5866074
:101A600081BD7894789480915401813009F03FC011
:101A70008091720190E068EE73E079D2BC01990F19
:101A8000880B990BD4D365D6ACD300917501109116
:101A900076012091770130917801601771078207F4
:101AA0009307A8F0009175011091760120917701BC
:101AB000309178016B017C01C01AD10AE20AF30A65
:101AC00097018601003412442F403105E8F26093FB
:101AD00075017093760180937701909378011CD6FD
:101AE000D5D5D2CF808375CF88E090E091CF5DD6F9
:101AF000CBCFE199FECF9FBB8EBBE09A99278DB3E8
:101B00000895262FE199FECF1CBA9FBB8EBB2DBB3B
:101B10000FB6F894E29AE19A0FBE019608955058D4
:101B2000BB27AA270ED075C166D130F06BD120F04B
:101B300031F49F3F11F41EF45BC10EF4E095E7FB16
:101B400051C1E92F77D180F3BA1762077307840771
:101B5000950718F071F49EF58FC10EF4E0950B2EE9
:101B6000BA2FA02D0B01B90190010C01CA01A001EF
:101B70001124FF27591B99F0593F50F4503E68F14A
:101B80001A16F040A22F232F342F4427585FF3CF8B
:101B9000469537952795A795F0405395C9F77EF45C
:101BA0001F16BA0B620B730B840BBAF09150A1F0A5
:101BB000FF0FBB1F661F771F881FC2F70EC0BA0F2B
:101BC000621F731F841F48F4879577956795B795B3
:101BD000F7959E3F08F0B3CF9395880F08F09927AB
:101BE000EE0F979587950895D9D008F481E0089570
:101BF0000CD00FC107D140F0FED030F021F45F3F90
:101C000019F0F0C0511139C1F3C014D198F39923E0
:101C1000C9F35523B1F3951B550BBB27AA276217B0
:101C20007307840738F09F5F5F4F220F331F441FF5
:101C3000AA1FA9F333D00E2E3AF0E0E830D091502D
:101C40005040E695001CCAF729D0FE2F27D0660F1A
:101C5000771F881FBB1F261737074807AB07B0E859
:101C600009F0BB0B802DBF01FF2793585F4F2AF06F
:101C70009E3F510568F0B6C000C15F3FECF3983E4F
:101C8000DCF3869577956795B795F7959F5FC9F7CC
:101C9000880F911D9695879597F90895E1E0660F55
:101CA000771F881FBB1F621773078407BA0720F0CE
:101CB000621B730B840BBA0BEE1F88F7E095089537
:101CC00004D06894B111D9C00895BCD088F09F5752
:101CD00090F0B92F9927B751A0F0D1F0660F771F78
:101CE000881F991F1AF0BA95C9F712C0B13081F058
:101CF000C3D0B1E00895C0C0672F782F8827B85FA0
:101D000039F0B93FCCF3869577956795B395D9F7B8
:101D10003EF490958095709561957F4F8F4F9F4FC2
:101D20000895E89409C097FB3EF4909580957095CE
:101D300061957F4F8F4F9F4F9923A9F0F92F96E917
:101D4000BB279395F695879577956795B795F1118C
:101D5000F8CFFAF4BB0F11F460FF1BC06F5F7F4F29
:101D60008F4F9F4F16C0882311F096E911C077233B
:101D700021F09EE8872F762F05C0662371F096E844
:101D8000862F70E060E02AF09A95660F771F881F13
:101D9000DAF7880F9695879597F90895990F0008B7
:101DA000550FAA0BE0E8FEEF16161706E807F9072D
:101DB000C0F012161306E407F50798F0621B730BC8
:101DC000840B950B39F40A2661F0232B242B252B49
:101DD00021F408950A2609F4A140A6958FEF811DEC
:101DE000811D089597F99F6780E870E060E008958D
:101DF0009FEF80EC089500240A9416161706180623
:101E00000906089500240A941216130614060506FE
:101E10000895092E0394000C11F4882352F0BB0F8F
:101E200040F4BF2B11F460FF04C06F5F7F4F8F4FF2
:101E30009F4F089557FD9058440F551F59F05F3F2D
:101E400071F04795880F97FB991F61F09F3F79F0DC
:101E500087950895121613061406551FF2CF46955E
:101E6000F1DF08C0161617061806991FF1CF8695E0
:101E70007105610508940895E894BB2766277727C4
:101E8000CB0197F908950AD0C4CFB5DF28F0BADFA7
:101E900018F0952309F0A6CFABCFEFCFCBDFA8F397
:101EA0009923D9F35523C9F3950F50E0551FAA275D
:101EB000EE27FF27BB2700240894679520F4E20F44
:101EC000F31FB41F0A1E220F331F441FAA1F66955B
:101ED000A9F7779530F4F30FB41F0A1E121E08F409
:101EE0006395330F441FAA1F221F769599F7879594
:101EF00020F4B40F0A1E121E631F440FAA1F221FD4
:101F0000331F8695A9F7862F712D602D11249F57B9
:101F100050408AF0E1F088234AF0EE0FFF1FBB1F0C
:101F2000661F771F881F91505040A9F79E3F5105AB
:101F300070F058CFA2CF5F3FECF3983EDCF386956C
:101F400077956795B795F795E7959F5FC1F7FE2B56
:101F5000880F911D9695879597F90895002480FD27
:101F6000060E660F11F08695D1F7802D0895002496
:101F7000552704C0080E591F880F991F009729F094
:101F800076956795B8F37105B9F7802D952F08956B
:101F9000EE27FF27AA27BB2708C0A20FB31FE41F05
:101FA000F51F220F331F441F551F96958795779570
:101FB000679598F37040A9F7009799F7BD01CF0195
:101FC0000895EE0FFF1F0590F491E02D0994F89409
:021FD000FFCF41
:101FD2000000000070014001530239028D018C01A2
:101FE20000000000180794028E027D026C028C0130
:00000001FF
