:1000000024C048C05FC6DDC50AC944C043C042C061
:1000100093C540C03FC037C43DC03CC03BC03AC0A0
:1000200039C038C037C036C035C034C033C032C024
:1000300031C030C02FC02EC02DC06FC4010204805B
:1000400040201008040201083B0C11241FBECFEF12
:10005000D2E0DEBFCDBF11E0A0E0B1E0EAE9FFE110
:1000600002C005900D92A232B107D9F721E0A2E2B9
:10007000B1E001C01D92AD3EB207E1F710E0C5E26C
:10008000D0E003C02197FE0180DFC432D107D1F751
:1000900013DC81CFB5CFE82FF0E0E45CFF4FE491B3
:1000A000A6E3B0E0833010F0A9E3B0E08C91E82340
:1000B00081E090E011F490E080E00895CF93DF9329
:1000C000E82FF0E0E45CFF4FE491833001F18230EF
:1000D00029F48091CA008F738093CA00C8E3D0E0EE
:1000E000A2E6B0E09E2F90952FB761110BC0F89457
:1000F0008881892388838C9189238C932FBFDF91FA
:10010000CF910895F8948881E82BE883F4CF80910B
:10011000CA008F7C8093CA00CBE3D0E0A3E6B0E0B6
:10012000E1CFCF93DF9386FF04C08F739AE0981BD3
:10013000892FE82FF0E0E45CFF4FE4918B3011F061
:100140008330D0F488E390E0A7E3B0E0C2E6D0E0EB
:100150002E2F2095611117C04FB7F8943C91322390
:100160003C93DC013C9132233C93888128232883F3
:100170004FBFDF91CF9108958BE390E0AAE3B0E009
:10018000C3E6D0E0E5CF623069F44FB7F8943C9114
:1001900023232C93DC012C912E2B2C938881E82B8C
:1001A000E883E6CF9FB7F8948881282328838C9131
:1001B000E82BEC939FBFDDCF86FD8F7328B1909124
:1001C00049019295990F907E2F71922B98B999B110
:1001D000907C892B89B92E9A2E99FECF86B197B142
:1001E00008953FB7F8948091450190914601A09100
:1001F0004701B091480122B708B600FE05C02F3F65
:1002000019F00196A11DB11D3FBFBA2FA92F982F3C
:100210008827BC01CD01620F711D811D911D43E036
:10022000660F771F881F991F4A95D1F70895CF92BF
:10023000DF92EF92FF92CF93DF936B017C01D1DFCE
:10024000EB01C114D104E104F10441F412C081E0D6
:10025000C81AD108E108F108C851DC4FC2DF6C1B95
:100260007D0B683E734068F3C114D104E104F104CE
:1002700071F7DF91CF91FF90EF90DF90CF900895CD
:10028000CF93DF93DC011C96ED91FC9126A137A161
:100290002032310510F5A6A1B7A1C6A1D7A120E251
:1002A00030E02A1B3B0B4217530708F49A01DB018D
:1002B000EC0FFD1FB9016E0F7F1FE617F70719F04E
:1002C0004D914193FACFDC011C96ED91FC9186A1F2
:1002D00097A1280F391F37A326A3DF91CF91089547
:1002E000DC011C96ED91FC9186A197A1809768F4A2
:1002F00086A197A19C012F5F3F4F37A326A3E80F4C
:10030000F91F608381E090E0089590E080E0089517
:10031000682F8FEA91E0E4CF0895DC011C96ED91FF
:10032000FC9120A131A182A193A12817390738F4AB
:1003300080A191A1E80FF91F808190E008958FEFCF
:100340009FEF0895982F82958F706AE0EBDD9F7084
:10035000890F089581E080933A0161E0E2DE60E078
:1003600081E0ACCE80913D01883770F080913C01F6
:10037000882351F080913B01811106C0EBDF81E0C1
:1003800080933B0110923E010895882339F08091BB
:100390005F0190E09093390180933801809138019A
:1003A0009091390184359105A0F4809138019091A4
:1003B00039012091380130913901281B390B3093D4
:1003C0003901209338016DE073E0B5DD809590959B
:1003D000089583E590E0EDCFCF92DF92EF92FF9208
:1003E000CF93DF9381E4E8DEEC0160916201062E99
:1003F000000C770B880B990B7ADC20E030E048EC9E
:1004000052E4DADB6B017C01BE01DD0F880B990B36
:100410006EDC20E93BE04BE75DE319DD9B01AC01BD
:10042000C701B60161DBDF91CF91FF90EF90DF90C4
:10043000CF90089560E080E041DE60E080E071DE12
:1004400010923401089581E08093340161E080E0EE
:1004500068DE61E080E032DE109232010895109291
:100460003C0160E083E02ACE1FBC1EBC8EB58460D8
:100470008EBD8EB581608EBD709A81E086DF9DBD98
:100480008CBD789A0895DC011C96ED91FC9120A119
:1004900031A182A193A12817390760F480A191A10D
:1004A0009C012F5F3F4F31A320A3E80FF91F8081EC
:1004B00090E008958FEF9FEF0895DC011C96ED9179
:1004C000FC9182A193A120A131A1821B930B0895DD
:1004D000662351F08FEA91E0F0DF892B29F08FEA53
:1004E00091E0D1DF80932F0181E00895DC019C969B
:1004F000EC919C979D962C91E21730F4E80FF92F20
:10050000F11D848590E008958FEF9FEF0895FC0121
:1005100094A585A52FEF3FEF981740F4DF01A90FB1
:10052000B11D1C962C9130E09F5F94A7C9010895DE
:10053000FC0185A594A5891B990B0895CF92DF92A4
:10054000EF92FF920F931F93CF93DF936C01EB0118
:100550007B01E40EF51E10E000E0CE15DF0561F032
:100560006991D601ED91FC910190F081E02DC601D9
:100570000995080F191FF1CFC801DF91CF911F9185
:100580000F91FF90EF90DF90CF9008950F931F93FE
:10059000CF93082F10E0F801E65BFE4F60838233B3
:1005A00058F4C62FC80189DAC81731F06C2FC8017A
:1005B000CF911F910F9189CACF911F910F910895EB
:1005C000CF92DF92EF92FF92CF930BDEC0902B0180
:1005D000D0902C01E0902D01F0902E016C157D053E
:1005E0008E059F05D8F1C0902B01D0902C01E09092
:1005F0002D01F0902E019B01AC012C193D094E09F3
:100600005F0969017A0130E4C31632E4D3063FE0A2
:10061000E306F10418F5C0914B0160914C0170E0C4
:1006200090E080E062DB20E030E048EC52E4C4DAA5
:100630006B017C016C2F70E090E080E056DB9B0149
:10064000AC01C701B60150DA6B017C01C701B601EC
:10065000CF91FF90EF90DF90CF90089560932B01A2
:1006600070932C0180932D0190932E01B5DE6B01C8
:100670007C010FDBC62F81E089DF6C2F70E090E0FA
:1006800080E035DB9B01AC01C701B6012CDA20E02C
:1006900030E048EC52E4DBDBFCDA82E077DFD6CFF7
:1006A000CF92DF92EF92FF9280913C018823D1F1AB
:1006B00080913E018823B1F180915101811104C0E4
:1006C00080917301813071F580915201882321F06E
:1006D00080917401813031F580915D018F3F11F17E
:1006E0006FDF6B017C0160915D0170E090E080E064
:1006F000FCDA20E030E040E251E45EDA9B01AC013C
:10070000C701B60155DA87FF0FC061E088E03EDF20
:1007100064E08BE03BDF1EDE81E0FF90EF90DF9036
:10072000CF90089580E0F9CF82E0F7CFCF92DF92AB
:10073000EF92FF92CF93C5B12F9A4EDE6B017C01F1
:10074000C5B923E333E34BE850E432DA60E087FDD8
:1007500062E087E01BDFC701B601CF91FF90EF9009
:10076000DF90CF90089581E080933C0110923D018D
:1007700061E083E0A3DCDACFCF9378982F9885B738
:10078000877E806185BF85B7806285BF80E28BBF31
:1007900082E080BD789481E08093360188958091D5
:1007A0003601882309F446C080912A018F5F809327
:1007B0002A0190915C0180912A018917D8F1109249
:1007C0002A0180915E01882349F0C0915E013BDEE1
:1007D0006C2F70E090E080E02ADD2CDE80916101DA
:1007E000882359F0C091610161E083E067DC6C2FE0
:1007F00070E090E080E01BDD32DEC091510196DFB9
:10080000809160018823B1F0C230A1F48091510140
:10081000811110C08091790190E068EE73E08BDB6C
:10082000BC01990F880B990B02DD1092360169E02B
:100830008BE0ACDE809136018111B0CFF89485B7A2
:100840008F7D85BF2F9A10DE80E38BBF83E080BD54
:1008500078941092330110923E0110923B0183DF95
:1008600081E093DD9DBD8CBDCF91089580913F01C6
:10087000882341F081E00FDC892B21F410923E01A6
:10088000EEDD7ACF08951F920F920FB60F921124CA
:100890002F933F938F939F93AF93BF938091410189
:1008A00090914201A0914301B091440130914001E7
:1008B00026E0230F2D3768F129E8230F0396A11DA9
:1008C000B11D209340018093410190934201A09378
:1008D0004301B09344018091450190914601A0915C
:1008E0004701B09148010196A11DB11D80934501BA
:1008F00090934601A0934701B0934801BF91AF91F7
:100900009F918F913F912F910F900FBE0F901F904D
:1009100018950296A11DB11DD4CF1F920F920FB64C
:100920000F9211242F933F934F935F936F937F9375
:100930008F939F93AF93BF93CF93EF93FF93C09108
:10094000A3008C2F8C7019F18FEF8093A4018091FC
:10095000A5019091A6019F779093A6018093A50190
:100960008091A300846C8093A300FF91EF91CF91BD
:10097000BF91AF919F918F917F916F915F914F91B7
:100980003F912F910F900FBE0F901F901895C6FDAD
:1009900028C08091A5019091A60197FD22C0C7FFB4
:1009A0006FC0C1FFAFC02091A0013091A101809123
:1009B000A2019091A3012817390708F0A1C08091E6
:1009C000A0019091A1019C012F5F3F4F3093A101A5
:1009D0002093A00184589E4FFC0180818093A00049
:1009E0004FC0C0FF66C08091A5019091A60197FFFE
:1009F00029C08091A5019091A6012091A000969513
:100A0000982F88279795879588279370822B9093A6
:100A1000A6018093A501E091A701F091A80130976C
:100A200089F110929D0110929C016091A401809126
:100A3000A5019091A6010995811124C087E08093BA
:100A4000A40093CF8091A00090E09093A6018093A2
:100A5000A5018091A4018F5F8093A4018091A501DD
:100A60009091A601897F9927803F9105A1F68091F9
:100A7000A5019091A60190689093A6018093A5018D
:100A800083E0DDCFC1FF10C01092A3011092A2013C
:100A9000E091AB01F091AC01309709F0099510920B
:100AA000A1011092A001ECCF10929F0110929E0123
:100AB000E7CFC1FF15C0E091AD01F091AE013097D5
:100AC00009F009958FEF8093A4018091A501909181
:100AD000A6019F779093A6018093A50180E443CF60
:100AE000E091A901F091AA01309761F310929D0164
:100AF00010929C0180919E0190919F010995E2CFF7
:100B000082E09DCF80919E0190919F01809790F40B
:100B100080919E0190919F019C012F5F3F4F3093E8
:100B20009F0120939E012091A00084589E4FFC01BC
:100B30002083A6CF86E083CF1F920F920FB60F922D
:100B400011242F933F934F935F936F937F938F93D2
:100B50009F93AF93BF93EF93FF9380913801909150
:100B60003901892B41F581E010DC9DBD8CBD7EDE15
:100B700080913B01882359F0809137018823C1F08F
:100B800085E089DA0197A1F410923B015CDCFF91CA
:100B9000EF91BF91AF919F918F917F916F915F91F5
:100BA0004F913F912F910F900FBE0F901F9018956E
:100BB00056DCE2DDECCF80E0E8DB9DBD8CBD56DE8F
:100BC000E6CF1F920F920FB60F9211242F933F93EF
:100BD0004F935F936F937F938F939F93AF93BF9345
:100BE000CF93DF93EF93FF9381E055DAD82F80E026
:100BF00052DAC82F809100018D1759F1D1115FC0D1
:100C000061E081E05BDA62E081E08BDA1CDC8091FC
:100C10003F01811118C081E080933F0180913A012A
:100C2000811103C063E08BE0B1DC80913C0188233B
:100C300009F441C080913E01882329F081E080932E
:100C40003B0110923E0181E0A0DB9DBD8CBD109266
:100C50003A01809135018C17B9F0809134018111EE
:100C600013C080913C01882379F080913B01811170
:100C70000BC080913E01811107C0C13029F460E0B2
:100C800088E084DCC0933E01D0930001C09335011D
:100C9000FF91EF91DF91CF91BF91AF919F918F9194
:100CA0007F916F915F914F913F912F910F900FBE68
:100CB0000F901F9018951092360155DDC4CF1092F9
:100CC0003F01C7CF1F920F920FB60F9211242F939F
:100CD0003F934F935F936F937F938F939F93AF93C4
:100CE000BF93EF93FF9385E0D6D90197C1F480912C
:100CF0003301811103C081E080933301FF91EF91B3
:100D0000BF91AF919F918F917F916F915F914F9123
:100D10003F912F910F900FBE0F901F9018958091CB
:100D20003301882359F380913E01882339F31092CF
:100D3000330110923E0181E080933B0180933701A3
:100D400079DB81E022DB9DBD8CBDD8CF71E0D09AEC
:100D5000BA9800000000000089D5D09887D5A894E3
:100D6000000000000000C89B7CD5B2F08894B299C6
:100D70000894771F60F7D09A803011F0BA9801C0BC
:100D8000BA9A00000000000071D5D098A894000025
:100D90000000C89B66D56AD500000000D09A872F56
:100DA0009927089580E208950894881F01C0880F4C
:100DB000B9F0D09A00000000000018F40000BA98C2
:100DC00002C0BA9A00C052D5D098A8940000000082
:100DD0000000C89B46D512F4882712C047D5E7CF3C
:100DE000D09A00000000BA9841D599278827D0985A
:100DF000A8940000C89B35D57AF3B29B81E036D524
:100E000000000000D09A089581E00895CF93DF9309
:100E1000EC01862FC9DF811108C08FA5811102C0A6
:100E200083E08FA790E080E002C081E090E0DF9156
:100E3000CF910895682F8DEB91E0E8CFD09ABA9AC0
:100E400015D5D09813D5C89B0CD5BA980FD5089551
:100E50008F938F918F93C89B04D5BA9A07D5A4DF3F
:100E6000882311F4EBDFF5CF0F9008950895D09A01
:100E7000FDD4BA98FBD4D098F9D4C89BF2D4BA9ACE
:100E8000F5D492DF089581E00895AF92BF92DF928A
:100E9000EF92FF920F931F93CF93DF93EB01D62E28
:100EA000880F991F8160E3DF9091EC01911105C0DB
:100EB000811103C082E08093EC0189ECE82E81E08F
:100EC000F82E10E000E05E0181E0A81AB10881E090
:100ED000A016B10609F080E039DFF70181937F01A8
:100EE0000F5F1F4F0D1598F31092E901C093EA01AF
:100EF0001092EB01A3DF8C2FDF91CF911F910F9107
:100F0000FF90EF90DF90BF90AF900895C89BA9D459
:100F1000BA9AACD449DF089581E00895CF93C09187
:100F2000EB01880FCC2369F0A2DF882341F080E039
:100F30008093EC0181E08093EB01CF91089582E0F2
:100F4000F7CFE4DF811101C0C2E0C093EC01F2CF22
:100F50001F93CF93DF93162FEA01E0DF612F8DEB14
:100F600091E054DF68818DEB91E050DF67DFEDEBBE
:100F7000F1E016A617A6DF91CF911F9108951F9358
:100F8000CF93DF93C82FD0E0C65BDE4F1BE0AE01EE
:100F9000612F81E5DDDF1F5F21961F30C1F7DF91F3
:100FA000CF911F910895CF93DF931F92CDB7DEB7F6
:100FB00080E88983AE014F5F5F4F61E081E5C8DF64
:100FC0000F90DF91CF910895CF92DF92EF92FF9231
:100FD0000F931F93CF9380912F018330B9F154F574
:100FE000813079F180912F0182330CF4BAC0809165
:100FF0002F0186330CF0B5C088E490DF80912F017B
:10100000082E000C990BC29715DF80912F018333B6
:1010100009F0BDC061E070E088E490E036DF8DEB60
:1010200091E075DACF911F910F91FF90EF90DF90D3
:10103000CF906EC9853009F457C0873099F676DBBA
:10104000D1CF2EDB8111CECFBBDACCCF82E4B4D8A6
:101050007C0183E4B1D88C01C0916301B701FF0C1E
:10106000880B990B44D620E93BE04BE75DE3EFD6D4
:101070006B017C01B801110F880B990B38D629E060
:1010800030EF4CE85AE3E3D69B01AC01C701B6014F
:101090002AD56B017C016C2FCC0F770B880B990B39
:1010A00026D620E030E048EC52E486D59B01AC0126
:1010B000C701B60119D56B017C01EBD5C62F83E0C2
:1010C00065DA6C2F70E090E080E011D69B01AC01F6
:1010D000C701B60108D520E030E048EC52E4B7D6AD
:1010E000D8D584E053DA7ECF83E466D8C09164011A
:1010F000BC01990F880B990BFAD529E030EF4CE829
:101100005AE3A5D62DEC3CEC4CE45DE355D56B01E0
:101110007C016C2FCC0F770B880B990BE8D520E066
:1011200030E048EC52E448D59B01AC01C701B60160
:10113000DBD46B017C01ADD5C62F85E027DA6C2F9F
:1011400070E090E080E0D3D59B01AC01C701B6010F
:10115000CAD420E030E048EC52E479D69AD586E053
:10116000C1CF80912F01863364F5E0912F010E2EBF
:10117000000CFF0BE65BFE4F60818FEA91E0CF91A0
:101180001F910F91FF90EF90DF90CF90A9C862E080
:1011900070E088E490E079DE8DEB91E0B8D9B8D8C2
:1011A0008DEB91E0B4D9B4D849DE1092EB011092E6
:1011B000EC01CF911F910F91FF90EF90DF90CF90B6
:1011C000089580912F01883484F681E5A7DE80910F
:1011D0002F01082E000C990BC6972CDE61E070E001
:1011E00081E590E052DEDCCFCF93DF93C82FD62F7E
:1011F00095DE6D2F8DEB91E009DE61E070E08C2FC4
:1012000090E043DE8DEB91E082D9C82F17DEEDEB45
:10121000F1E016A617A68C2FDF91CF9108951F92AB
:101220000F920FB60F9211243F924F925F926F92DE
:101230007F928F929F92AF92BF92CF92DF92EF9266
:10124000FF920F931F932F933F934F935F936F934F
:101250007F938F939F93AF93BF93EF93FF93CF931E
:10126000DF93CDB7DEB72597DEBFCDBF80913201CA
:101270008F5F8093320180913201833019F4109294
:101280003201D8D880913C01811150DA09DA80917D
:101290003D01883728F480913D018F5F80933D01A7
:1012A00060E088E4A1DF2091780190917601281711
:1012B0000CF078C18091770166E0813009F47AC141
:1012C00080917701823041F466E08BE05FD98091B4
:1012D0003C01811101C03ED864E081E585DF8F7754
:1012E00031D8182F65E081E57FDF2CD8082F66E024
:1012F00081E57ADF27D8B82E67E081E575DF22D84F
:10130000682F70E090E080E020E831E541E050E0B7
:1013100023D66B017C016B2D70E090E080E020E132
:101320003EE040E050E018D6C60ED71EE81EF91E7B
:10133000602F70E090E080E02CE330E040E050E08F
:101340000BD6C60ED71EE81EF91EC10ED11CE11C1D
:10135000F11C80916501F6D7182F80916601F2D7B4
:10136000082F80916701EED7B82E80916801EAD7E7
:10137000682F70E090E080E020E831E541E050E047
:10138000EBD52B013C016B2D70E090E080E020E17B
:101390003EE040E050E0E0D553014201860E971E4A
:1013A000A81EB91E602F70E090E080E02CE330E0D2
:1013B00040E050E0D1D5860E971EA81EB91E810EC2
:1013C000911CA11CB11C80916A01BCD7182F80917F
:1013D0006B01B8D7082F80916C01B4D7382E80915B
:1013E0006D01B0D7682F70E090E080E020E831E533
:1013F00041E050E0B1D52B013C01632D70E090E05D
:1014000080E020E13EE040E050E0A6D5460E571EC9
:10141000681E791E602F70E090E080E02CE330E0E1
:1014200040E050E099D5460E571E681E791E410EC9
:10143000511C611C711C80913C01882309F4C5C0BA
:1014400081E091E081149104A104B10431F0209174
:10145000530191E0213009F090E021E04114510462
:101460006104710431F03091540121E0313009F010
:1014700020E0B701A601481959096A097B09C41877
:10148000D508E608F708882309F4E9C091112FC1AF
:10149000423051056105710508F0D5C061E089E071
:1014A00075D861E087E272D880913C018111C3C098
:1014B00061E08BE06BD84ED7809130018F5F8093D5
:1014C0003001809130018F3F79F510923001809189
:1014D00070014FE651E0813021F560E088E484DE60
:1014E000682F8A310CF0D7C0062E000C770B6A519A
:1014F0007109072E000C880B990BF9D324E035EC09
:1015000041E05EE3A4D4C0D390916F01892F8F7323
:1015100096FD8054680F67FD60586983AE014F5F88
:101520005F4F62E081E514DD80913C01811113C0C1
:1015300080913101882379F0809131018F5F809310
:10154000310180913101843031F41092310168E031
:101550008BE01CD8FFD60F900F900F900F900F903C
:10156000DF91CF91FF91EF91BF91AF919F918F91BB
:101570007F916F915F914F913F912F911F910F91AB
:10158000FF90EF90DF90CF90BF90AF909F908F90A3
:101590007F906F905F904F903F900F900FBE0F9095
:1015A0001F90189589170CF097CE809175018130A6
:1015B00029F467E08BE0EAD7D5D68ECE809175010D
:1015C00067E0823009F088CE80CE80915101882377
:1015D00009F436CF15B12F9AFFD66A837B838C83AB
:1015E0009D8315B960915D0170E090E080E07DD34E
:1015F00020E030E040E251E4DFD22091520121307E
:1016000049F42A813B814C815D81D2D2881F882791
:10161000881F17CF2A813B814C815D81C9D287FD0C
:101620000FCF80915D018F3F09F40ACF61E088E020
:10163000ADD780E006CF80917A0180FD3DCF81E07B
:101640008093310139CF211178C0F7FE54C077FF64
:1016500017C04E3F5F4F6F4F7F4F94F009C09111FD
:101660000BC077FF09C04E3F5F4F6F4F7F4F24F095
:101670009ADC8BE184DC20CF21111ECFF7FE1CCF3A
:101680008EEFC8168FEFD806E806F8060CF414CFD4
:101690008ADC80E2EFCF8FED860F8A3078F4062E59
:1016A000000C770B60527109072E000C880B990B08
:1016B0001ED32AE731EC4CEB5DEB24CF6B32ACF060
:1016C000062E000C770B6A527109072E000C880B4E
:1016D000990B0DD32BE131E94DE85EEBB8D328ED42
:1016E00031EF4BE65FE3FFD10ECF60E00DCF21116C
:1016F000E3CEF7FCC5CF82E0C816D104E104F104C3
:10170000CCF461E08AE042D761E088E23FD7809183
:101710003C01882309F4D0CE80913B018111CCCECD
:1017200062E08BE033D716D681E080933B011092C4
:101730003E01C2CE9111C0CE94CF77FFBDCE4E3FB9
:101740005F4F6F4F7F4F0CF4B7CE92CF8FEA91E08F
:10175000B4D6892B09F476C08FEA91E094D68093B1
:101760002F0180912F018233DCF080912F0186338D
:10177000BCF488E4D3DB80912F01082E000C990B78
:10178000C29758DB80912F01833399F48FEA91E05F
:101790007AD650DB53DB1092EB011092EC010895E6
:1017A00080912F01863374F480912F018031BCF435
:1017B000089580912F01823369F38FEA91E063D617
:1017C00039DBE4CF80912F01883474F781E5A6DB03
:1017D00080912F01082E000C990BC697F1CF8091B4
:1017E0002F0182337CF58FEA91E067D6892B51F186
:1017F00080912F018B313CF080912F0180321CF4BD
:1018000060E089E0C3D680912F0180323CF0809166
:101810002F0185321CF460E08AE0B8D68FEA91E0AF
:1018200032D6682F80912F01B1D680912F01853259
:1018300049F480916F01809382014FE651E062E0AC
:1018400081E586CB0895BA98D098C298D898882711
:101850009927B29B0895C89B089581E0089581E07F
:101860000895C89BFECFA8940895089598E09A958E
:10187000F1F708950895EFEAF1E01382128288EEFD
:1018800093E0A0E0B0E084839583A683B78325E04E
:1018900031E0318320832CE731E035872487EDEB7D
:1018A000F1E01382128284839583A683B78385E156
:1018B00091E0918380830895789480B7836080BF9E
:1018C00083B7877F83BF83B7887F836083BF89B7F0
:1018D000816089BF8091C900887F8093C900809111
:1018E000CA008C7F81608093CA008091C900877E86
:1018F0008093C9008091C900887F83608093C9006C
:101900008EB5887F8EBD8FB58C7F81608FBD8EB583
:10191000877E8EBD8EB5887F83608EBD80E180938B
:10192000670084EA809368008CEF8093660085B13D
:10193000887F866085B92F9A1092E9011092EA019A
:101940001092EC011092EB017EDF60E080E0E9D3C1
:1019500062E081E0E6D361E083E0E3D360E085E02C
:10196000E0D360E081E4DDD360E082E4DAD360E0DC
:1019700083E4D7D362E084E0D4D362E086E0D1D3BD
:101980006ED581E08093490197E390934A0195E0F9
:101990009093560198E090935A0194E090935C01E3
:1019A0009FE190935D0194E690935E0196E490939D
:1019B0005F019FEF9093600194E190936201909397
:1019C0006301809370018BE48093760180E58093BE
:1019D0007801D0E0C0E0CE0170D0FE01E65BFE4FA2
:1019E0008F3F09F063C01081CE0167D0181719F03E
:1019F000612FCE016AD02196C233D10561F748E745
:101A000051E063E088E4A4DA46E751E062E088E46C
:101A10009FDA4FE651E062E081E59ADA80915A015F
:101A2000883008F445C080915A01883708F040C0DA
:101A300080915A01E091BB01F091BC01880F809325
:101A4000A2001092A1008FEF80A78CEB8093A500DD
:101A500088E692E094A783A786EA9BE096A785A7ED
:101A600084EE97E090AB87A7F89480E38BBF83E088
:101A700080BD80E282BBF8D4F89481B5806481BDDA
:101A800081B5866081BD7894789480915B018130C6
:101A900091F48091790190E068EE73E04CD2BC0142
:101AA000990F880B990BC3D35ED6FFCF8083A3CF4A
:101AB00088E090E0BFCF60D6F8CFE199FECF9FBB22
:101AC0008EBBE09A99278DB30895262FE199FECF1A
:101AD0001CBA9FBB8EBB2DBB0FB6F894E29AE19A5D
:101AE0000FBE019608955058BB27AA270ED075C186
:101AF00066D130F06BD120F031F49F3F11F41EF429
:101B00005BC10EF4E095E7FB51C1E92F77D180F37B
:101B1000BA17620773078407950718F071F49EF5EA
:101B20008FC10EF4E0950B2EBA2FA02D0B01B90139
:101B300090010C01CA01A0011124FF27591B99F043
:101B4000593F50F4503E68F11A16F040A22F232F4F
:101B5000342F4427585FF3CF469537952795A7959F
:101B6000F0405395C9F77EF41F16BA0B620B730B46
:101B7000840BBAF09150A1F0FF0FBB1F661F771FB7
:101B8000881FC2F70EC0BA0F621F731F841F48F46C
:101B9000879577956795B795F7959E3F08F0B3CFF2
:101BA0009395880F08F09927EE0F979587950895DC
:101BB000D9D008F481E008950CD00FC107D140F0CE
:101BC000FED030F021F45F3F19F0F0C0511139C15F
:101BD000F3C014D198F39923C9F35523B1F3951B9E
:101BE000550BBB27AA2762177307840738F09F5F3E
:101BF0005F4F220F331F441FAA1FA9F333D00E2EAD
:101C00003AF0E0E830D091505040E695001CCAF719
:101C100029D0FE2F27D0660F771F881FBB1F2617DE
:101C200037074807AB07B0E809F0BB0B802DBF01B1
:101C3000FF2793585F4F2AF09E3F510568F0B6C0CA
:101C400000C15F3FECF3983EDCF38695779567958E
:101C5000B795F7959F5FC9F7880F911D9695879562
:101C600097F90895E1E0660F771F881FBB1F621781
:101C700073078407BA0720F0621B730B840BBA0B3F
:101C8000EE1F88F7E095089504D06894B111D9C08B
:101C90000895BCD088F09F5790F0B92F9927B7517D
:101CA000A0F0D1F0660F771F881F991F1AF0BA9520
:101CB000C9F712C0B13081F0C3D0B1E00895C0C0FF
:101CC000672F782F8827B85F39F0B93FCCF3869516
:101CD00077956795B395D9F73EF490958095709573
:101CE00061957F4F8F4F9F4F0895E89409C097FBF0
:101CF0003EF490958095709561957F4F8F4F9F4FE3
:101D00009923A9F0F92F96E9BB279395F695879526
:101D100077956795B795F111F8CFFAF4BB0F11F4E9
:101D200060FF1BC06F5F7F4F8F4F9F4F16C0882390
:101D300011F096E911C0772321F09EE8872F762FC6
:101D400005C0662371F096E8862F70E060E02AF007
:101D50009A95660F771F881FDAF7880F96958795F3
:101D600097F90895990F0008550FAA0BE0E8FEEFC8
:101D700016161706E807F907C0F012161306E4074F
:101D8000F50798F0621B730B840B950B39F40A2648
:101D900061F0232B242B252B21F408950A2609F426
:101DA000A140A6958FEF811D811D089597F99F672A
:101DB00080E870E060E008959FEF80EC08950024D3
:101DC0000A941616170618060906089500240A94A0
:101DD00012161306140605060895092E0394000C26
:101DE00011F4882352F0BB0F40F4BF2B11F460FFB5
:101DF00004C06F5F7F4F8F4F9F4F089557FD9058DE
:101E0000440F551F59F05F3F71F04795880F97FBBE
:101E1000991F61F09F3F79F0879508951216130678
:101E20001406551FF2CF4695F1DF08C016161706A7
:101E30001806991FF1CF86957105610508940895DC
:101E4000E894BB2766277727CB0197F908950AD036
:101E5000C4CFB5DF28F0BADF18F0952309F0A6CF7C
:101E6000ABCFEFCFCBDFA8F39923D9F35523C9F339
:101E7000950F50E0551FAA27EE27FF27BB27002408
:101E80000894679520F4E20FF31FB41F0A1E220F77
:101E9000331F441FAA1F6695A9F7779530F4F30FF7
:101EA000B41F0A1E121E08F46395330F441FAA1FA5
:101EB000221F769599F7879520F4B40F0A1E121EFB
:101EC000631F440FAA1F221F331F8695A9F7862F71
:101ED000712D602D11249F5750408AF0E1F0882326
:101EE0004AF0EE0FFF1FBB1F661F771F881F915020
:101EF0005040A9F79E3F510570F058CFA2CF5F3FE9
:101F0000ECF3983EDCF3869577956795B795F79552
:101F1000E7959F5FC1F7FE2B880F911D96958795DA
:101F200097F90895002480FD060E660F11F086953E
:101F3000D1F7802D08950024552704C0080E591F9D
:101F4000880F991F009729F076956795B8F371056A
:101F5000B9F7802D952F0895EE27FF27AA27BB27D5
:101F600008C0A20FB31FE41FF51F220F331F441F29
:101F7000551F969587957795679598F37040A9F7C3
:101F8000009799F7BD01CF010895EE0FFF1F05904F
:0A1F9000F491E02D0994F894FFCFBE
:101F9A000100000000700140015D0243028D018CC6
:101FAA00010000000006079E029802870276028C52
:021FBA00010024
:00000001FF
